{
  "contractName": "CodeSnippetNFT",
  "abi": [
    {
      "inputs": [],
      "stateMutability": "nonpayable",
      "type": "constructor"
    },
    {
      "anonymous": false,
      "inputs": [
        {
          "indexed": true,
          "internalType": "address",
          "name": "owner",
          "type": "address"
        },
        {
          "indexed": true,
          "internalType": "address",
          "name": "approved",
          "type": "address"
        },
        {
          "indexed": true,
          "internalType": "uint256",
          "name": "tokenId",
          "type": "uint256"
        }
      ],
      "name": "Approval",
      "type": "event"
    },
    {
      "anonymous": false,
      "inputs": [
        {
          "indexed": true,
          "internalType": "address",
          "name": "owner",
          "type": "address"
        },
        {
          "indexed": true,
          "internalType": "address",
          "name": "operator",
          "type": "address"
        },
        {
          "indexed": false,
          "internalType": "bool",
          "name": "approved",
          "type": "bool"
        }
      ],
      "name": "ApprovalForAll",
      "type": "event"
    },
    {
      "anonymous": false,
      "inputs": [
        {
          "indexed": true,
          "internalType": "address",
          "name": "from",
          "type": "address"
        },
        {
          "indexed": true,
          "internalType": "address",
          "name": "to",
          "type": "address"
        },
        {
          "indexed": true,
          "internalType": "uint256",
          "name": "tokenId",
          "type": "uint256"
        }
      ],
      "name": "Transfer",
      "type": "event"
    },
    {
      "inputs": [
        {
          "internalType": "address",
          "name": "to",
          "type": "address"
        },
        {
          "internalType": "uint256",
          "name": "tokenId",
          "type": "uint256"
        }
      ],
      "name": "approve",
      "outputs": [],
      "stateMutability": "nonpayable",
      "type": "function"
    },
    {
      "inputs": [
        {
          "internalType": "uint256",
          "name": "",
          "type": "uint256"
        }
      ],
      "name": "approvedCodeSnippetTokens",
      "outputs": [
        {
          "internalType": "uint256",
          "name": "",
          "type": "uint256"
        }
      ],
      "stateMutability": "view",
      "type": "function",
      "constant": true
    },
    {
      "inputs": [
        {
          "internalType": "address",
          "name": "owner",
          "type": "address"
        }
      ],
      "name": "balanceOf",
      "outputs": [
        {
          "internalType": "uint256",
          "name": "",
          "type": "uint256"
        }
      ],
      "stateMutability": "view",
      "type": "function",
      "constant": true
    },
    {
      "inputs": [
        {
          "internalType": "uint256",
          "name": "",
          "type": "uint256"
        }
      ],
      "name": "codeSnippets",
      "outputs": [
        {
          "internalType": "string",
          "name": "name",
          "type": "string"
        },
        {
          "internalType": "string",
          "name": "language",
          "type": "string"
        },
        {
          "internalType": "string",
          "name": "code",
          "type": "string"
        },
        {
          "internalType": "uint256",
          "name": "price",
          "type": "uint256"
        },
        {
          "internalType": "address",
          "name": "currentOwner",
          "type": "address"
        },
        {
          "internalType": "enum CodeSnippetNFT.ApprovalStatus",
          "name": "approvalStatus",
          "type": "uint8"
        },
        {
          "internalType": "address",
          "name": "requestedBy",
          "type": "address"
        }
      ],
      "stateMutability": "view",
      "type": "function",
      "constant": true
    },
    {
      "inputs": [
        {
          "internalType": "uint256",
          "name": "tokenId",
          "type": "uint256"
        }
      ],
      "name": "getApproved",
      "outputs": [
        {
          "internalType": "address",
          "name": "",
          "type": "address"
        }
      ],
      "stateMutability": "view",
      "type": "function",
      "constant": true
    },
    {
      "inputs": [
        {
          "internalType": "address",
          "name": "owner",
          "type": "address"
        },
        {
          "internalType": "address",
          "name": "operator",
          "type": "address"
        }
      ],
      "name": "isApprovedForAll",
      "outputs": [
        {
          "internalType": "bool",
          "name": "",
          "type": "bool"
        }
      ],
      "stateMutability": "view",
      "type": "function",
      "constant": true
    },
    {
      "inputs": [],
      "name": "name",
      "outputs": [
        {
          "internalType": "string",
          "name": "",
          "type": "string"
        }
      ],
      "stateMutability": "view",
      "type": "function",
      "constant": true
    },
    {
      "inputs": [
        {
          "internalType": "uint256",
          "name": "tokenId",
          "type": "uint256"
        }
      ],
      "name": "ownerOf",
      "outputs": [
        {
          "internalType": "address",
          "name": "",
          "type": "address"
        }
      ],
      "stateMutability": "view",
      "type": "function",
      "constant": true
    },
    {
      "inputs": [
        {
          "internalType": "uint256",
          "name": "",
          "type": "uint256"
        }
      ],
      "name": "pendingApprovalCodeSnippetTokens",
      "outputs": [
        {
          "internalType": "uint256",
          "name": "",
          "type": "uint256"
        }
      ],
      "stateMutability": "view",
      "type": "function",
      "constant": true
    },
    {
      "inputs": [
        {
          "internalType": "uint256",
          "name": "",
          "type": "uint256"
        }
      ],
      "name": "requestedCodeSnippetTokens",
      "outputs": [
        {
          "internalType": "uint256",
          "name": "",
          "type": "uint256"
        }
      ],
      "stateMutability": "view",
      "type": "function",
      "constant": true
    },
    {
      "inputs": [
        {
          "internalType": "address",
          "name": "from",
          "type": "address"
        },
        {
          "internalType": "address",
          "name": "to",
          "type": "address"
        },
        {
          "internalType": "uint256",
          "name": "tokenId",
          "type": "uint256"
        }
      ],
      "name": "safeTransferFrom",
      "outputs": [],
      "stateMutability": "nonpayable",
      "type": "function"
    },
    {
      "inputs": [
        {
          "internalType": "address",
          "name": "from",
          "type": "address"
        },
        {
          "internalType": "address",
          "name": "to",
          "type": "address"
        },
        {
          "internalType": "uint256",
          "name": "tokenId",
          "type": "uint256"
        },
        {
          "internalType": "bytes",
          "name": "data",
          "type": "bytes"
        }
      ],
      "name": "safeTransferFrom",
      "outputs": [],
      "stateMutability": "nonpayable",
      "type": "function"
    },
    {
      "inputs": [
        {
          "internalType": "address",
          "name": "operator",
          "type": "address"
        },
        {
          "internalType": "bool",
          "name": "approved",
          "type": "bool"
        }
      ],
      "name": "setApprovalForAll",
      "outputs": [],
      "stateMutability": "nonpayable",
      "type": "function"
    },
    {
      "inputs": [
        {
          "internalType": "bytes4",
          "name": "interfaceId",
          "type": "bytes4"
        }
      ],
      "name": "supportsInterface",
      "outputs": [
        {
          "internalType": "bool",
          "name": "",
          "type": "bool"
        }
      ],
      "stateMutability": "view",
      "type": "function",
      "constant": true
    },
    {
      "inputs": [],
      "name": "symbol",
      "outputs": [
        {
          "internalType": "string",
          "name": "",
          "type": "string"
        }
      ],
      "stateMutability": "view",
      "type": "function",
      "constant": true
    },
    {
      "inputs": [
        {
          "internalType": "uint256",
          "name": "tokenId",
          "type": "uint256"
        }
      ],
      "name": "tokenURI",
      "outputs": [
        {
          "internalType": "string",
          "name": "",
          "type": "string"
        }
      ],
      "stateMutability": "view",
      "type": "function",
      "constant": true
    },
    {
      "inputs": [
        {
          "internalType": "address",
          "name": "from",
          "type": "address"
        },
        {
          "internalType": "address",
          "name": "to",
          "type": "address"
        },
        {
          "internalType": "uint256",
          "name": "tokenId",
          "type": "uint256"
        }
      ],
      "name": "transferFrom",
      "outputs": [],
      "stateMutability": "nonpayable",
      "type": "function"
    },
    {
      "inputs": [],
      "name": "getCurrentTimeStamp",
      "outputs": [
        {
          "internalType": "uint256",
          "name": "",
          "type": "uint256"
        }
      ],
      "stateMutability": "view",
      "type": "function",
      "constant": true
    },
    {
      "inputs": [],
      "name": "getCustodianAddress",
      "outputs": [
        {
          "internalType": "address",
          "name": "",
          "type": "address"
        }
      ],
      "stateMutability": "view",
      "type": "function",
      "constant": true
    },
    {
      "inputs": [
        {
          "internalType": "string",
          "name": "name",
          "type": "string"
        },
        {
          "internalType": "string",
          "name": "language",
          "type": "string"
        },
        {
          "internalType": "string",
          "name": "code",
          "type": "string"
        },
        {
          "internalType": "uint256",
          "name": "price",
          "type": "uint256"
        }
      ],
      "name": "createCodeSnippet",
      "outputs": [
        {
          "internalType": "uint256",
          "name": "",
          "type": "uint256"
        }
      ],
      "stateMutability": "nonpayable",
      "type": "function"
    },
    {
      "inputs": [
        {
          "internalType": "uint256[]",
          "name": "arr",
          "type": "uint256[]"
        },
        {
          "internalType": "uint256",
          "name": "item",
          "type": "uint256"
        }
      ],
      "name": "getIndex",
      "outputs": [
        {
          "internalType": "uint256",
          "name": "",
          "type": "uint256"
        }
      ],
      "stateMutability": "view",
      "type": "function",
      "constant": true
    },
    {
      "inputs": [
        {
          "internalType": "uint256",
          "name": "tokenId",
          "type": "uint256"
        }
      ],
      "name": "approveCodeSnippet",
      "outputs": [
        {
          "internalType": "uint256[]",
          "name": "",
          "type": "uint256[]"
        },
        {
          "internalType": "uint256[]",
          "name": "",
          "type": "uint256[]"
        },
        {
          "internalType": "enum CodeSnippetNFT.ApprovalStatus",
          "name": "",
          "type": "uint8"
        }
      ],
      "stateMutability": "nonpayable",
      "type": "function"
    },
    {
      "inputs": [],
      "name": "getPendingApprovalTokens",
      "outputs": [
        {
          "internalType": "uint256[]",
          "name": "",
          "type": "uint256[]"
        }
      ],
      "stateMutability": "view",
      "type": "function",
      "constant": true
    },
    {
      "inputs": [],
      "name": "getApprovedTokens",
      "outputs": [
        {
          "internalType": "uint256[]",
          "name": "",
          "type": "uint256[]"
        }
      ],
      "stateMutability": "view",
      "type": "function",
      "constant": true
    },
    {
      "inputs": [],
      "name": "getrequestedTokens",
      "outputs": [
        {
          "internalType": "uint256[]",
          "name": "",
          "type": "uint256[]"
        }
      ],
      "stateMutability": "view",
      "type": "function",
      "constant": true
    },
    {
      "inputs": [
        {
          "internalType": "uint256",
          "name": "_tokenId",
          "type": "uint256"
        }
      ],
      "name": "getCodeSnippet",
      "outputs": [
        {
          "internalType": "string",
          "name": "",
          "type": "string"
        },
        {
          "internalType": "string",
          "name": "",
          "type": "string"
        },
        {
          "internalType": "string",
          "name": "",
          "type": "string"
        },
        {
          "internalType": "uint256",
          "name": "",
          "type": "uint256"
        },
        {
          "internalType": "enum CodeSnippetNFT.ApprovalStatus",
          "name": "",
          "type": "uint8"
        },
        {
          "internalType": "address",
          "name": "",
          "type": "address"
        }
      ],
      "stateMutability": "view",
      "type": "function",
      "constant": true
    },
    {
      "inputs": [
        {
          "internalType": "uint256",
          "name": "tokenId",
          "type": "uint256"
        }
      ],
      "name": "requestCodeSnippet",
      "outputs": [],
      "stateMutability": "payable",
      "type": "function",
      "payable": true
    },
    {
      "inputs": [
        {
          "internalType": "uint256",
          "name": "tokenId",
          "type": "uint256"
        }
      ],
      "name": "approveCodeSnippetRequestAndTransfer",
      "outputs": [],
      "stateMutability": "payable",
      "type": "function",
      "payable": true
    },
    {
      "inputs": [],
      "name": "getMyTokens",
      "outputs": [
        {
          "internalType": "uint256[]",
          "name": "",
          "type": "uint256[]"
        }
      ],
      "stateMutability": "view",
      "type": "function",
      "constant": true
    },
    {
      "inputs": [
        {
          "internalType": "uint256",
          "name": "tokenId",
          "type": "uint256"
        },
        {
          "internalType": "uint256",
          "name": "price",
          "type": "uint256"
        }
      ],
      "name": "sellCodeSnippet",
      "outputs": [],
      "stateMutability": "nonpayable",
      "type": "function"
    }
  ],
  "bytecode": "0x60806040526305f5e0ff6006553480156200001957600080fd5b506040518060400160405280600e81526020017f436f6465536e69707065744e46540000000000000000000000000000000000008152506040518060400160405280600581526020017f43534e465400000000000000000000000000000000000000000000000000000081525081600090816200009791906200036d565b508060019081620000a991906200036d565b50505033600760006101000a81548173ffffffffffffffffffffffffffffffffffffffff021916908373ffffffffffffffffffffffffffffffffffffffff16021790555062000454565b600081519050919050565b7f4e487b7100000000000000000000000000000000000000000000000000000000600052604160045260246000fd5b7f4e487b7100000000000000000000000000000000000000000000000000000000600052602260045260246000fd5b600060028204905060018216806200017557607f821691505b6020821081036200018b576200018a6200012d565b5b50919050565b60008190508160005260206000209050919050565b60006020601f8301049050919050565b600082821b905092915050565b600060088302620001f57fffffffffffffffffffffffffffffffffffffffffffffffffffffffffffffffff82620001b6565b620002018683620001b6565b95508019841693508086168417925050509392505050565b6000819050919050565b6000819050919050565b60006200024e62000248620002428462000219565b62000223565b62000219565b9050919050565b6000819050919050565b6200026a836200022d565b62000282620002798262000255565b848454620001c3565b825550505050565b600090565b620002996200028a565b620002a68184846200025f565b505050565b5b81811015620002ce57620002c26000826200028f565b600181019050620002ac565b5050565b601f8211156200031d57620002e78162000191565b620002f284620001a6565b8101602085101562000302578190505b6200031a6200031185620001a6565b830182620002ab565b50505b505050565b600082821c905092915050565b6000620003426000198460080262000322565b1980831691505092915050565b60006200035d83836200032f565b9150826002028217905092915050565b6200037882620000f3565b67ffffffffffffffff811115620003945762000393620000fe565b5b620003a082546200015c565b620003ad828285620002d2565b600060209050601f831160018114620003e55760008415620003d0578287015190505b620003dc85826200034f565b8655506200044c565b601f198416620003f58662000191565b60005b828110156200041f57848901518255600182019150602085019450602081019050620003f8565b868310156200043f57848901516200043b601f8916826200032f565b8355505b6001600288020188555050505b505050505050565b614bb080620004646000396000f3fe6080604052600436106101cd5760003560e01c80637e5e219c116100f7578063c7c16c9f11610095578063e985e9c511610064578063e985e9c5146106fa578063eb66433014610737578063eecc159814610753578063fc4c601c14610790576101cd565b8063c7c16c9f14610627578063c87b56dd14610652578063e2da6cb31461068f578063e70dd040146106b8576101cd565b80639bca7c32116100d15780639bca7c321461056b578063a22cb465146105aa578063b88d4fde146105d3578063b9674411146105fc576101cd565b80637e5e219c146104d857806390aeada21461050357806395d89b4114610540576101cd565b806342842e0e1161016f5780636352211e1161013e5780636352211e146103f65780636aba7e33146104335780636afc0c5f1461047057806370a082311461049b576101cd565b806342842e0e146103495780635b3b136a146103725780635d9b8d551461039d5780635fdeb54c146103b9576101cd565b8063081812fc116101ab578063081812fc14610277578063095ea7b3146102b457806323b872dd146102dd578063400c04c514610306576101cd565b806301ffc9a7146101d257806305661a8b1461020f57806306fdde031461024c575b600080fd5b3480156101de57600080fd5b506101f960048036038101906101f491906133e5565b6107bb565b604051610206919061342d565b60405180910390f35b34801561021b57600080fd5b506102366004803603810190610231919061347e565b61089d565b60405161024391906134ba565b60405180910390f35b34801561025857600080fd5b506102616108c1565b60405161026e9190613565565b60405180910390f35b34801561028357600080fd5b5061029e6004803603810190610299919061347e565b610953565b6040516102ab91906135c8565b60405180910390f35b3480156102c057600080fd5b506102db60048036038101906102d6919061360f565b610999565b005b3480156102e957600080fd5b5061030460048036038101906102ff919061364f565b610ab0565b005b34801561031257600080fd5b5061032d6004803603810190610328919061347e565b610b10565b6040516103409796959493929190613719565b60405180910390f35b34801561035557600080fd5b50610370600480360381019061036b919061364f565b610d37565b005b34801561037e57600080fd5b50610387610d57565b604051610394919061385b565b60405180910390f35b6103b760048036038101906103b2919061347e565b610df2565b005b3480156103c557600080fd5b506103e060048036038101906103db91906139b2565b611345565b6040516103ed91906134ba565b60405180910390f35b34801561040257600080fd5b5061041d6004803603810190610418919061347e565b611606565b60405161042a91906135c8565b60405180910390f35b34801561043f57600080fd5b5061045a6004803603810190610455919061347e565b61168c565b60405161046791906134ba565b60405180910390f35b34801561047c57600080fd5b506104856116b0565b604051610492919061385b565b60405180910390f35b3480156104a757600080fd5b506104c260048036038101906104bd9190613a6d565b61170e565b6040516104cf91906134ba565b60405180910390f35b3480156104e457600080fd5b506104ed6117c5565b6040516104fa91906134ba565b60405180910390f35b34801561050f57600080fd5b5061052a60048036038101906105259190613b62565b6117cd565b60405161053791906134ba565b60405180910390f35b34801561054c57600080fd5b50610555611828565b6040516105629190613565565b60405180910390f35b34801561057757600080fd5b50610592600480360381019061058d919061347e565b6118ba565b6040516105a193929190613bbe565b60405180910390f35b3480156105b657600080fd5b506105d160048036038101906105cc9190613c2f565b611bfa565b005b3480156105df57600080fd5b506105fa60048036038101906105f59190613d10565b611c10565b005b34801561060857600080fd5b50610611611c72565b60405161061e919061385b565b60405180910390f35b34801561063357600080fd5b5061063c611d2a565b604051610649919061385b565b60405180910390f35b34801561065e57600080fd5b506106796004803603810190610674919061347e565b611d88565b6040516106869190613565565b60405180910390f35b34801561069b57600080fd5b506106b660048036038101906106b19190613d93565b611df0565b005b3480156106c457600080fd5b506106df60048036038101906106da919061347e565b611f5d565b6040516106f196959493929190613dd3565b60405180910390f35b34801561070657600080fd5b50610721600480360381019061071c9190613e49565b6122ae565b60405161072e919061342d565b60405180910390f35b610751600480360381019061074c919061347e565b612342565b005b34801561075f57600080fd5b5061077a6004803603810190610775919061347e565b61255d565b60405161078791906134ba565b60405180910390f35b34801561079c57600080fd5b506107a5612581565b6040516107b291906135c8565b60405180910390f35b60007f80ac58cd000000000000000000000000000000000000000000000000000000007bffffffffffffffffffffffffffffffffffffffffffffffffffffffff1916827bffffffffffffffffffffffffffffffffffffffffffffffffffffffff1916148061088657507f5b5e139f000000000000000000000000000000000000000000000000000000007bffffffffffffffffffffffffffffffffffffffffffffffffffffffff1916827bffffffffffffffffffffffffffffffffffffffffffffffffffffffff1916145b806108965750610895826125ab565b5b9050919050565b600981815481106108ad57600080fd5b906000526020600020016000915090505481565b6060600080546108d090613eb8565b80601f01602080910402602001604051908101604052809291908181526020018280546108fc90613eb8565b80156109495780601f1061091e57610100808354040283529160200191610949565b820191906000526020600020905b81548152906001019060200180831161092c57829003601f168201915b5050505050905090565b600061095e82612615565b6004600083815260200190815260200160002060009054906101000a900473ffffffffffffffffffffffffffffffffffffffff169050919050565b60006109a482611606565b90508073ffffffffffffffffffffffffffffffffffffffff168373ffffffffffffffffffffffffffffffffffffffff1603610a14576040517f08c379a0000000000000000000000000000000000000000000000000000000008152600401610a0b90613f5b565b60405180910390fd5b8073ffffffffffffffffffffffffffffffffffffffff16610a33612660565b73ffffffffffffffffffffffffffffffffffffffff161480610a625750610a6181610a5c612660565b6122ae565b5b610aa1576040517f08c379a0000000000000000000000000000000000000000000000000000000008152600401610a9890613fed565b60405180910390fd5b610aab8383612668565b505050565b610ac1610abb612660565b82612721565b610b00576040517f08c379a0000000000000000000000000000000000000000000000000000000008152600401610af79061407f565b60405180910390fd5b610b0b8383836127b6565b505050565b600b602052806000526040600020600091509050806000018054610b3390613eb8565b80601f0160208091040260200160405190810160405280929190818152602001828054610b5f90613eb8565b8015610bac5780601f10610b8157610100808354040283529160200191610bac565b820191906000526020600020905b815481529060010190602001808311610b8f57829003601f168201915b505050505090806001018054610bc190613eb8565b80601f0160208091040260200160405190810160405280929190818152602001828054610bed90613eb8565b8015610c3a5780601f10610c0f57610100808354040283529160200191610c3a565b820191906000526020600020905b815481529060010190602001808311610c1d57829003601f168201915b505050505090806002018054610c4f90613eb8565b80601f0160208091040260200160405190810160405280929190818152602001828054610c7b90613eb8565b8015610cc85780601f10610c9d57610100808354040283529160200191610cc8565b820191906000526020600020905b815481529060010190602001808311610cab57829003601f168201915b5050505050908060030154908060040160009054906101000a900473ffffffffffffffffffffffffffffffffffffffff16908060040160149054906101000a900460ff16908060050160009054906101000a900473ffffffffffffffffffffffffffffffffffffffff16905087565b610d5283838360405180602001604052806000815250611c10565b505050565b60606000339050600d60008273ffffffffffffffffffffffffffffffffffffffff1673ffffffffffffffffffffffffffffffffffffffff168152602001908152602001600020805480602002602001604051908101604052809291908181526020018280548015610de757602002820191906000526020600020905b815481526020019060010190808311610dd3575b505050505091505090565b6000600b600083815260200190815260200160002060040160009054906101000a900473ffffffffffffffffffffffffffffffffffffffff1690506000600b60008481526020019081526020016000206003015490506000600b600085815260200190815260200160002060050160009054906101000a900473ffffffffffffffffffffffffffffffffffffffff169050610e8e838286610d37565b80600b600086815260200190815260200160002060040160006101000a81548173ffffffffffffffffffffffffffffffffffffffff021916908373ffffffffffffffffffffffffffffffffffffffff1602179055508273ffffffffffffffffffffffffffffffffffffffff166108fc839081150290604051600060405180830381858888f19350505050158015610f29573d6000803e3d6000fd5b506003600b600086815260200190815260200160002060040160146101000a81548160ff02191690836003811115610f6457610f636136a2565b5b02179055506000600654905060005b600a80549050811015610fc05785600a8281548110610f9557610f9461409f565b5b906000526020600020015403610fad57809150610fc0565b8080610fb8906140fd565b915050610f73565b5060008190505b6001600a80549050610fd99190614145565b81101561104057600a600182610fef9190614179565b8154811061100057610fff61409f565b5b9060005260206000200154600a828154811061101f5761101e61409f565b5b90600052602060002001819055508080611038906140fd565b915050610fc7565b50600a805480611053576110526141ad565b5b600190038181906000526020600020016000905590556000600654905060005b600d60008773ffffffffffffffffffffffffffffffffffffffff1673ffffffffffffffffffffffffffffffffffffffff1681526020019081526020016000208054905081101561113a5786600d60008873ffffffffffffffffffffffffffffffffffffffff1673ffffffffffffffffffffffffffffffffffffffff168152602001908152602001600020828154811061110f5761110e61409f565b5b9060005260206000200154036111275780915061113a565b8080611132906140fd565b915050611073565b5060008190505b6001600d60008873ffffffffffffffffffffffffffffffffffffffff1673ffffffffffffffffffffffffffffffffffffffff168152602001908152602001600020805490506111909190614145565b81101561127157600d60008773ffffffffffffffffffffffffffffffffffffffff1673ffffffffffffffffffffffffffffffffffffffff1681526020019081526020016000206001826111e39190614179565b815481106111f4576111f361409f565b5b9060005260206000200154600d60008873ffffffffffffffffffffffffffffffffffffffff1673ffffffffffffffffffffffffffffffffffffffff16815260200190815260200160002082815481106112505761124f61409f565b5b90600052602060002001819055508080611269906140fd565b915050611141565b50600d60008673ffffffffffffffffffffffffffffffffffffffff1673ffffffffffffffffffffffffffffffffffffffff1681526020019081526020016000208054806112c1576112c06141ad565b5b60019003818190600052602060002001600090559055600d60008473ffffffffffffffffffffffffffffffffffffffff1673ffffffffffffffffffffffffffffffffffffffff168152602001908152602001600020869080600181540180825580915050600190039060005260206000200160009091909190915055505050505050565b6000806113506117c5565b905060003390506113618183612aaf565b61138d600760009054906101000a900473ffffffffffffffffffffffffffffffffffffffff1683610999565b81600c60008373ffffffffffffffffffffffffffffffffffffffff1673ffffffffffffffffffffffffffffffffffffffff16815260200190815260200160002081905550600d60008273ffffffffffffffffffffffffffffffffffffffff1673ffffffffffffffffffffffffffffffffffffffff16815260200190815260200160002082908060018154018082558091505060019003906000526020600020016000909190919091505560006040518060e001604052808981526020018881526020018781526020018681526020018373ffffffffffffffffffffffffffffffffffffffff1681526020016000600381111561148c5761148b6136a2565b5b8152602001600073ffffffffffffffffffffffffffffffffffffffff16815250905080600b600085815260200190815260200160002060008201518160000190816114d79190614388565b5060208201518160010190816114ed9190614388565b5060408201518160020190816115039190614388565b506060820151816003015560808201518160040160006101000a81548173ffffffffffffffffffffffffffffffffffffffff021916908373ffffffffffffffffffffffffffffffffffffffff16021790555060a08201518160040160146101000a81548160ff021916908360038111156115805761157f6136a2565b5b021790555060c08201518160050160006101000a81548173ffffffffffffffffffffffffffffffffffffffff021916908373ffffffffffffffffffffffffffffffffffffffff1602179055509050506009839080600181540180825580915050600190039060005260206000200160009091909190915055829350505050949350505050565b60008061161283612acd565b9050600073ffffffffffffffffffffffffffffffffffffffff168173ffffffffffffffffffffffffffffffffffffffff1603611683576040517f08c379a000000000000000000000000000000000000000000000000000000000815260040161167a906144a6565b60405180910390fd5b80915050919050565b600a818154811061169c57600080fd5b906000526020600020016000915090505481565b60606000600880548060200260200160405190810160405280929190818152602001828054801561170057602002820191906000526020600020905b8154815260200190600101908083116116ec575b505050505090508091505090565b60008073ffffffffffffffffffffffffffffffffffffffff168273ffffffffffffffffffffffffffffffffffffffff160361177e576040517f08c379a000000000000000000000000000000000000000000000000000000000815260040161177590614538565b60405180910390fd5b600360008373ffffffffffffffffffffffffffffffffffffffff1673ffffffffffffffffffffffffffffffffffffffff168152602001908152602001600020549050919050565b600042905090565b600080600090505b835181101561181b57828482815181106117f2576117f161409f565b5b6020026020010151036118085780915050611822565b8080611813906140fd565b9150506117d5565b5060065490505b92915050565b60606001805461183790613eb8565b80601f016020809104026020016040519081016040528092919081815260200182805461186390613eb8565b80156118b05780601f10611885576101008083540402835291602001916118b0565b820191906000526020600020905b81548152906001019060200180831161189357829003601f168201915b5050505050905090565b6060806000600760009054906101000a900473ffffffffffffffffffffffffffffffffffffffff1673ffffffffffffffffffffffffffffffffffffffff163373ffffffffffffffffffffffffffffffffffffffff161461191957600080fd5b8361192381612b0a565b611962576040517f08c379a0000000000000000000000000000000000000000000000000000000008152600401611959906145ca565b60405180910390fd5b6001600b600087815260200190815260200160002060040160146101000a81548160ff0219169083600381111561199c5761199b6136a2565b5b021790555060088590806001815401808255809150506001900390600052602060002001600090919091909150556000600654905060005b600980549050811015611a215786600982815481106119f6576119f561409f565b5b906000526020600020015403611a0e57809150611a21565b8080611a19906140fd565b9150506119d4565b506006548114158015611a38575060098054905081105b611a77576040517f08c379a0000000000000000000000000000000000000000000000000000000008152600401611a6e9061465c565b60405180910390fd5b60008190505b6001600980549050611a8f9190614145565b811015611af6576009600182611aa59190614179565b81548110611ab657611ab561409f565b5b906000526020600020015460098281548110611ad557611ad461409f565b5b90600052602060002001819055508080611aee906140fd565b915050611a7d565b506009805480611b0957611b086141ad565b5b6001900381819060005260206000200160009055905560096008600b600089815260200190815260200160002060040160149054906101000a900460ff1682805480602002602001604051908101604052809291908181526020018280548015611b9257602002820191906000526020600020905b815481526020019060010190808311611b7e575b5050505050925081805480602002602001604051908101604052809291908181526020018280548015611be457602002820191906000526020600020905b815481526020019060010190808311611bd0575b5050505050915094509450945050509193909250565b611c0c611c05612660565b8383612b4b565b5050565b611c21611c1b612660565b83612721565b611c60576040517f08c379a0000000000000000000000000000000000000000000000000000000008152600401611c579061407f565b60405180910390fd5b611c6c84848484612cb7565b50505050565b6060600760009054906101000a900473ffffffffffffffffffffffffffffffffffffffff1673ffffffffffffffffffffffffffffffffffffffff163373ffffffffffffffffffffffffffffffffffffffff1614611cce57600080fd5b60006009805480602002602001604051908101604052809291908181526020018280548015611d1c57602002820191906000526020600020905b815481526020019060010190808311611d08575b505050505090508091505090565b60606000600a805480602002602001604051908101604052809291908181526020018280548015611d7a57602002820191906000526020600020905b815481526020019060010190808311611d66575b505050505090508091505090565b6060611d9382612615565b6000611d9d612d13565b90506000815111611dbd5760405180602001604052806000815250611de8565b80611dc784612d2a565b604051602001611dd89291906146b8565b6040516020818303038152906040525b915050919050565b81611dfa81612b0a565b611e39576040517f08c379a0000000000000000000000000000000000000000000000000000000008152600401611e30906145ca565b60405180910390fd5b823373ffffffffffffffffffffffffffffffffffffffff16600b600083815260200190815260200160002060040160009054906101000a900473ffffffffffffffffffffffffffffffffffffffff1673ffffffffffffffffffffffffffffffffffffffff1614611ea857600080fd5b82600b6000868152602001908152602001600020600301819055506001600b600086815260200190815260200160002060040160146101000a81548160ff02191690836003811115611efd57611efc6136a2565b5b02179055506008849080600181540180825580915050600190039060005260206000200160009091909190915055611f57600760009054906101000a900473ffffffffffffffffffffffffffffffffffffffff1685610999565b50505050565b6060806060600080600086611f7181612b0a565b611fb0576040517f08c379a0000000000000000000000000000000000000000000000000000000008152600401611fa7906145ca565b60405180910390fd5b6000600b60008a81526020019081526020016000206040518060e0016040529081600082018054611fe090613eb8565b80601f016020809104026020016040519081016040528092919081815260200182805461200c90613eb8565b80156120595780601f1061202e57610100808354040283529160200191612059565b820191906000526020600020905b81548152906001019060200180831161203c57829003601f168201915b5050505050815260200160018201805461207290613eb8565b80601f016020809104026020016040519081016040528092919081815260200182805461209e90613eb8565b80156120eb5780601f106120c0576101008083540402835291602001916120eb565b820191906000526020600020905b8154815290600101906020018083116120ce57829003601f168201915b5050505050815260200160028201805461210490613eb8565b80601f016020809104026020016040519081016040528092919081815260200182805461213090613eb8565b801561217d5780601f106121525761010080835404028352916020019161217d565b820191906000526020600020905b81548152906001019060200180831161216057829003601f168201915b50505050508152602001600382015481526020016004820160009054906101000a900473ffffffffffffffffffffffffffffffffffffffff1673ffffffffffffffffffffffffffffffffffffffff1673ffffffffffffffffffffffffffffffffffffffff1681526020016004820160149054906101000a900460ff16600381111561220b5761220a6136a2565b5b600381111561221d5761221c6136a2565b5b81526020016005820160009054906101000a900473ffffffffffffffffffffffffffffffffffffffff1673ffffffffffffffffffffffffffffffffffffffff1673ffffffffffffffffffffffffffffffffffffffff1681525050905080600001518160200151826040015183606001518460a001518560800151975097509750975097509750505091939550919395565b6000600560008473ffffffffffffffffffffffffffffffffffffffff1673ffffffffffffffffffffffffffffffffffffffff16815260200190815260200160002060008373ffffffffffffffffffffffffffffffffffffffff1673ffffffffffffffffffffffffffffffffffffffff16815260200190815260200160002060009054906101000a900460ff16905092915050565b8034600b6000838152602001908152602001600020600301541461239b576040517f08c379a00000000000000000000000000000000000000000000000000000000081526004016123929061474e565b60405180910390fd5b6000600654905060005b6008805490508110156123f25783600882815481106123c7576123c661409f565b5b9060005260206000200154036123df578091506123f2565b80806123ea906140fd565b9150506123a5565b5060008190505b600160088054905061240b9190614145565b8110156124725760086001826124219190614179565b815481106124325761243161409f565b5b9060005260206000200154600882815481106124515761245061409f565b5b9060005260206000200181905550808061246a906140fd565b9150506123f9565b506008805480612485576124846141ad565b5b60019003818190600052602060002001600090559055600a83908060018154018082558091505060019003906000526020600020016000909190919091505533600b600085815260200190815260200160002060050160006101000a81548173ffffffffffffffffffffffffffffffffffffffff021916908373ffffffffffffffffffffffffffffffffffffffff1602179055506002600b600085815260200190815260200160002060040160146101000a81548160ff02191690836003811115612553576125526136a2565b5b0217905550505050565b6008818154811061256d57600080fd5b906000526020600020016000915090505481565b6000600760009054906101000a900473ffffffffffffffffffffffffffffffffffffffff16905090565b60007f01ffc9a7000000000000000000000000000000000000000000000000000000007bffffffffffffffffffffffffffffffffffffffffffffffffffffffff1916827bffffffffffffffffffffffffffffffffffffffffffffffffffffffff1916149050919050565b61261e81612b0a565b61265d576040517f08c379a0000000000000000000000000000000000000000000000000000000008152600401612654906144a6565b60405180910390fd5b50565b600033905090565b816004600083815260200190815260200160002060006101000a81548173ffffffffffffffffffffffffffffffffffffffff021916908373ffffffffffffffffffffffffffffffffffffffff160217905550808273ffffffffffffffffffffffffffffffffffffffff166126db83611606565b73ffffffffffffffffffffffffffffffffffffffff167f8c5be1e5ebec7d5bd14f71427d1e84f3dd0314c0f7b2291e5b200ac8c7c3b92560405160405180910390a45050565b60008061272d83611606565b90508073ffffffffffffffffffffffffffffffffffffffff168473ffffffffffffffffffffffffffffffffffffffff16148061276f575061276e81856122ae565b5b806127ad57508373ffffffffffffffffffffffffffffffffffffffff1661279584610953565b73ffffffffffffffffffffffffffffffffffffffff16145b91505092915050565b8273ffffffffffffffffffffffffffffffffffffffff166127d682611606565b73ffffffffffffffffffffffffffffffffffffffff161461282c576040517f08c379a0000000000000000000000000000000000000000000000000000000008152600401612823906147e0565b60405180910390fd5b600073ffffffffffffffffffffffffffffffffffffffff168273ffffffffffffffffffffffffffffffffffffffff160361289b576040517f08c379a000000000000000000000000000000000000000000000000000000000815260040161289290614872565b60405180910390fd5b6128a88383836001612df8565b8273ffffffffffffffffffffffffffffffffffffffff166128c882611606565b73ffffffffffffffffffffffffffffffffffffffff161461291e576040517f08c379a0000000000000000000000000000000000000000000000000000000008152600401612915906147e0565b60405180910390fd5b6004600082815260200190815260200160002060006101000a81549073ffffffffffffffffffffffffffffffffffffffff02191690556001600360008573ffffffffffffffffffffffffffffffffffffffff1673ffffffffffffffffffffffffffffffffffffffff168152602001908152602001600020600082825403925050819055506001600360008473ffffffffffffffffffffffffffffffffffffffff1673ffffffffffffffffffffffffffffffffffffffff16815260200190815260200160002060008282540192505081905550816002600083815260200190815260200160002060006101000a81548173ffffffffffffffffffffffffffffffffffffffff021916908373ffffffffffffffffffffffffffffffffffffffff160217905550808273ffffffffffffffffffffffffffffffffffffffff168473ffffffffffffffffffffffffffffffffffffffff167fddf252ad1be2c89b69c2b068fc378daa952ba7f163c4a11628f55a4df523b3ef60405160405180910390a4612aaa8383836001612dfe565b505050565b612ac9828260405180602001604052806000815250612e04565b5050565b60006002600083815260200190815260200160002060009054906101000a900473ffffffffffffffffffffffffffffffffffffffff169050919050565b60008073ffffffffffffffffffffffffffffffffffffffff16612b2c83612acd565b73ffffffffffffffffffffffffffffffffffffffff1614159050919050565b8173ffffffffffffffffffffffffffffffffffffffff168373ffffffffffffffffffffffffffffffffffffffff1603612bb9576040517f08c379a0000000000000000000000000000000000000000000000000000000008152600401612bb0906148de565b60405180910390fd5b80600560008573ffffffffffffffffffffffffffffffffffffffff1673ffffffffffffffffffffffffffffffffffffffff16815260200190815260200160002060008473ffffffffffffffffffffffffffffffffffffffff1673ffffffffffffffffffffffffffffffffffffffff16815260200190815260200160002060006101000a81548160ff0219169083151502179055508173ffffffffffffffffffffffffffffffffffffffff168373ffffffffffffffffffffffffffffffffffffffff167f17307eab39ab6107e8899845ad3d59bd9653f200f220920489ca2b5937696c3183604051612caa919061342d565b60405180910390a3505050565b612cc28484846127b6565b612cce84848484612e5f565b612d0d576040517f08c379a0000000000000000000000000000000000000000000000000000000008152600401612d0490614970565b60405180910390fd5b50505050565b606060405180602001604052806000815250905090565b606060006001612d3984612fe6565b01905060008167ffffffffffffffff811115612d5857612d57613887565b5b6040519080825280601f01601f191660200182016040528015612d8a5781602001600182028036833780820191505090505b509050600082602001820190505b600115612ded578080600190039150507f3031323334353637383961626364656600000000000000000000000000000000600a86061a8153600a8581612de157612de0614990565b5b04945060008503612d98575b819350505050919050565b50505050565b50505050565b612e0e8383613139565b612e1b6000848484612e5f565b612e5a576040517f08c379a0000000000000000000000000000000000000000000000000000000008152600401612e5190614970565b60405180910390fd5b505050565b6000612e808473ffffffffffffffffffffffffffffffffffffffff16613356565b15612fd9578373ffffffffffffffffffffffffffffffffffffffff1663150b7a02612ea9612660565b8786866040518563ffffffff1660e01b8152600401612ecb9493929190614a14565b6020604051808303816000875af1925050508015612f0757506040513d601f19601f82011682018060405250810190612f049190614a75565b60015b612f89573d8060008114612f37576040519150601f19603f3d011682016040523d82523d6000602084013e612f3c565b606091505b506000815103612f81576040517f08c379a0000000000000000000000000000000000000000000000000000000008152600401612f7890614970565b60405180910390fd5b805181602001fd5b63150b7a0260e01b7bffffffffffffffffffffffffffffffffffffffffffffffffffffffff1916817bffffffffffffffffffffffffffffffffffffffffffffffffffffffff191614915050612fde565b600190505b949350505050565b600080600090507a184f03e93ff9f4daa797ed6e38ed64bf6a1f0100000000000000008310613044577a184f03e93ff9f4daa797ed6e38ed64bf6a1f010000000000000000838161303a57613039614990565b5b0492506040810190505b6d04ee2d6d415b85acef81000000008310613081576d04ee2d6d415b85acef8100000000838161307757613076614990565b5b0492506020810190505b662386f26fc1000083106130b057662386f26fc1000083816130a6576130a5614990565b5b0492506010810190505b6305f5e10083106130d9576305f5e10083816130cf576130ce614990565b5b0492506008810190505b61271083106130fe5761271083816130f4576130f3614990565b5b0492506004810190505b60648310613121576064838161311757613116614990565b5b0492506002810190505b600a8310613130576001810190505b80915050919050565b600073ffffffffffffffffffffffffffffffffffffffff168273ffffffffffffffffffffffffffffffffffffffff16036131a8576040517f08c379a000000000000000000000000000000000000000000000000000000000815260040161319f90614aee565b60405180910390fd5b6131b181612b0a565b156131f1576040517f08c379a00000000000000000000000000000000000000000000000000000000081526004016131e890614b5a565b60405180910390fd5b6131ff600083836001612df8565b61320881612b0a565b15613248576040517f08c379a000000000000000000000000000000000000000000000000000000000815260040161323f90614b5a565b60405180910390fd5b6001600360008473ffffffffffffffffffffffffffffffffffffffff1673ffffffffffffffffffffffffffffffffffffffff16815260200190815260200160002060008282540192505081905550816002600083815260200190815260200160002060006101000a81548173ffffffffffffffffffffffffffffffffffffffff021916908373ffffffffffffffffffffffffffffffffffffffff160217905550808273ffffffffffffffffffffffffffffffffffffffff16600073ffffffffffffffffffffffffffffffffffffffff167fddf252ad1be2c89b69c2b068fc378daa952ba7f163c4a11628f55a4df523b3ef60405160405180910390a4613352600083836001612dfe565b5050565b6000808273ffffffffffffffffffffffffffffffffffffffff163b119050919050565b6000604051905090565b600080fd5b600080fd5b60007fffffffff0000000000000000000000000000000000000000000000000000000082169050919050565b6133c28161338d565b81146133cd57600080fd5b50565b6000813590506133df816133b9565b92915050565b6000602082840312156133fb576133fa613383565b5b6000613409848285016133d0565b91505092915050565b60008115159050919050565b61342781613412565b82525050565b6000602082019050613442600083018461341e565b92915050565b6000819050919050565b61345b81613448565b811461346657600080fd5b50565b60008135905061347881613452565b92915050565b60006020828403121561349457613493613383565b5b60006134a284828501613469565b91505092915050565b6134b481613448565b82525050565b60006020820190506134cf60008301846134ab565b92915050565b600081519050919050565b600082825260208201905092915050565b60005b8381101561350f5780820151818401526020810190506134f4565b60008484015250505050565b6000601f19601f8301169050919050565b6000613537826134d5565b61354181856134e0565b93506135518185602086016134f1565b61355a8161351b565b840191505092915050565b6000602082019050818103600083015261357f818461352c565b905092915050565b600073ffffffffffffffffffffffffffffffffffffffff82169050919050565b60006135b282613587565b9050919050565b6135c2816135a7565b82525050565b60006020820190506135dd60008301846135b9565b92915050565b6135ec816135a7565b81146135f757600080fd5b50565b600081359050613609816135e3565b92915050565b6000806040838503121561362657613625613383565b5b6000613634858286016135fa565b925050602061364585828601613469565b9150509250929050565b60008060006060848603121561366857613667613383565b5b6000613676868287016135fa565b9350506020613687868287016135fa565b925050604061369886828701613469565b9150509250925092565b7f4e487b7100000000000000000000000000000000000000000000000000000000600052602160045260246000fd5b600481106136e2576136e16136a2565b5b50565b60008190506136f3826136d1565b919050565b6000613703826136e5565b9050919050565b613713816136f8565b82525050565b600060e0820190508181036000830152613733818a61352c565b90508181036020830152613747818961352c565b9050818103604083015261375b818861352c565b905061376a60608301876134ab565b61377760808301866135b9565b61378460a083018561370a565b61379160c08301846135b9565b98975050505050505050565b600081519050919050565b600082825260208201905092915050565b6000819050602082019050919050565b6137d281613448565b82525050565b60006137e483836137c9565b60208301905092915050565b6000602082019050919050565b60006138088261379d565b61381281856137a8565b935061381d836137b9565b8060005b8381101561384e57815161383588826137d8565b9750613840836137f0565b925050600181019050613821565b5085935050505092915050565b6000602082019050818103600083015261387581846137fd565b905092915050565b600080fd5b600080fd5b7f4e487b7100000000000000000000000000000000000000000000000000000000600052604160045260246000fd5b6138bf8261351b565b810181811067ffffffffffffffff821117156138de576138dd613887565b5b80604052505050565b60006138f1613379565b90506138fd82826138b6565b919050565b600067ffffffffffffffff82111561391d5761391c613887565b5b6139268261351b565b9050602081019050919050565b82818337600083830152505050565b600061395561395084613902565b6138e7565b90508281526020810184848401111561397157613970613882565b5b61397c848285613933565b509392505050565b600082601f8301126139995761399861387d565b5b81356139a9848260208601613942565b91505092915050565b600080600080608085870312156139cc576139cb613383565b5b600085013567ffffffffffffffff8111156139ea576139e9613388565b5b6139f687828801613984565b945050602085013567ffffffffffffffff811115613a1757613a16613388565b5b613a2387828801613984565b935050604085013567ffffffffffffffff811115613a4457613a43613388565b5b613a5087828801613984565b9250506060613a6187828801613469565b91505092959194509250565b600060208284031215613a8357613a82613383565b5b6000613a91848285016135fa565b91505092915050565b600067ffffffffffffffff821115613ab557613ab4613887565b5b602082029050602081019050919050565b600080fd5b6000613ade613ad984613a9a565b6138e7565b90508083825260208201905060208402830185811115613b0157613b00613ac6565b5b835b81811015613b2a5780613b168882613469565b845260208401935050602081019050613b03565b5050509392505050565b600082601f830112613b4957613b4861387d565b5b8135613b59848260208601613acb565b91505092915050565b60008060408385031215613b7957613b78613383565b5b600083013567ffffffffffffffff811115613b9757613b96613388565b5b613ba385828601613b34565b9250506020613bb485828601613469565b9150509250929050565b60006060820190508181036000830152613bd881866137fd565b90508181036020830152613bec81856137fd565b9050613bfb604083018461370a565b949350505050565b613c0c81613412565b8114613c1757600080fd5b50565b600081359050613c2981613c03565b92915050565b60008060408385031215613c4657613c45613383565b5b6000613c54858286016135fa565b9250506020613c6585828601613c1a565b9150509250929050565b600067ffffffffffffffff821115613c8a57613c89613887565b5b613c938261351b565b9050602081019050919050565b6000613cb3613cae84613c6f565b6138e7565b905082815260208101848484011115613ccf57613cce613882565b5b613cda848285613933565b509392505050565b600082601f830112613cf757613cf661387d565b5b8135613d07848260208601613ca0565b91505092915050565b60008060008060808587031215613d2a57613d29613383565b5b6000613d38878288016135fa565b9450506020613d49878288016135fa565b9350506040613d5a87828801613469565b925050606085013567ffffffffffffffff811115613d7b57613d7a613388565b5b613d8787828801613ce2565b91505092959194509250565b60008060408385031215613daa57613da9613383565b5b6000613db885828601613469565b9250506020613dc985828601613469565b9150509250929050565b600060c0820190508181036000830152613ded818961352c565b90508181036020830152613e01818861352c565b90508181036040830152613e15818761352c565b9050613e2460608301866134ab565b613e31608083018561370a565b613e3e60a08301846135b9565b979650505050505050565b60008060408385031215613e6057613e5f613383565b5b6000613e6e858286016135fa565b9250506020613e7f858286016135fa565b9150509250929050565b7f4e487b7100000000000000000000000000000000000000000000000000000000600052602260045260246000fd5b60006002820490506001821680613ed057607f821691505b602082108103613ee357613ee2613e89565b5b50919050565b7f4552433732313a20617070726f76616c20746f2063757272656e74206f776e6560008201527f7200000000000000000000000000000000000000000000000000000000000000602082015250565b6000613f456021836134e0565b9150613f5082613ee9565b604082019050919050565b60006020820190508181036000830152613f7481613f38565b9050919050565b7f4552433732313a20617070726f76652063616c6c6572206973206e6f7420746f60008201527f6b656e206f776e6572206f7220617070726f76656420666f7220616c6c000000602082015250565b6000613fd7603d836134e0565b9150613fe282613f7b565b604082019050919050565b6000602082019050818103600083015261400681613fca565b9050919050565b7f4552433732313a2063616c6c6572206973206e6f7420746f6b656e206f776e6560008201527f72206f7220617070726f76656400000000000000000000000000000000000000602082015250565b6000614069602d836134e0565b91506140748261400d565b604082019050919050565b600060208201905081810360008301526140988161405c565b9050919050565b7f4e487b7100000000000000000000000000000000000000000000000000000000600052603260045260246000fd5b7f4e487b7100000000000000000000000000000000000000000000000000000000600052601160045260246000fd5b600061410882613448565b91507fffffffffffffffffffffffffffffffffffffffffffffffffffffffffffffffff820361413a576141396140ce565b5b600182019050919050565b600061415082613448565b915061415b83613448565b9250828203905081811115614173576141726140ce565b5b92915050565b600061418482613448565b915061418f83613448565b92508282019050808211156141a7576141a66140ce565b5b92915050565b7f4e487b7100000000000000000000000000000000000000000000000000000000600052603160045260246000fd5b60008190508160005260206000209050919050565b60006020601f8301049050919050565b600082821b905092915050565b60006008830261423e7fffffffffffffffffffffffffffffffffffffffffffffffffffffffffffffffff82614201565b6142488683614201565b95508019841693508086168417925050509392505050565b6000819050919050565b600061428561428061427b84613448565b614260565b613448565b9050919050565b6000819050919050565b61429f8361426a565b6142b36142ab8261428c565b84845461420e565b825550505050565b600090565b6142c86142bb565b6142d3818484614296565b505050565b5b818110156142f7576142ec6000826142c0565b6001810190506142d9565b5050565b601f82111561433c5761430d816141dc565b614316846141f1565b81016020851015614325578190505b614339614331856141f1565b8301826142d8565b50505b505050565b600082821c905092915050565b600061435f60001984600802614341565b1980831691505092915050565b6000614378838361434e565b9150826002028217905092915050565b614391826134d5565b67ffffffffffffffff8111156143aa576143a9613887565b5b6143b48254613eb8565b6143bf8282856142fb565b600060209050601f8311600181146143f257600084156143e0578287015190505b6143ea858261436c565b865550614452565b601f198416614400866141dc565b60005b8281101561442857848901518255600182019150602085019450602081019050614403565b868310156144455784890151614441601f89168261434e565b8355505b6001600288020188555050505b505050505050565b7f4552433732313a20696e76616c696420746f6b656e2049440000000000000000600082015250565b60006144906018836134e0565b915061449b8261445a565b602082019050919050565b600060208201905081810360008301526144bf81614483565b9050919050565b7f4552433732313a2061646472657373207a65726f206973206e6f74206120766160008201527f6c6964206f776e65720000000000000000000000000000000000000000000000602082015250565b60006145226029836134e0565b915061452d826144c6565b604082019050919050565b6000602082019050818103600083015261455181614515565b9050919050565b7f436f6465536e69707065744e46543a20546f6b656e20646f6573206e6f74206560008201527f7869737400000000000000000000000000000000000000000000000000000000602082015250565b60006145b46024836134e0565b91506145bf82614558565b604082019050919050565b600060208201905081810360008301526145e3816145a7565b9050919050565b7f436f6465536e69707065744e46543a20746f6b656e206e6f742070726573656e60008201527f7420696e2070656e64696e6720617070726f76616c206c697374000000000000602082015250565b6000614646603a836134e0565b9150614651826145ea565b604082019050919050565b6000602082019050818103600083015261467581614639565b9050919050565b600081905092915050565b6000614692826134d5565b61469c818561467c565b93506146ac8185602086016134f1565b80840191505092915050565b60006146c48285614687565b91506146d08284614687565b91508190509392505050565b7f496e76616c696420616d6f756e7420746f2062757920636f646520736e69707060008201527f6574000000000000000000000000000000000000000000000000000000000000602082015250565b60006147386022836134e0565b9150614743826146dc565b604082019050919050565b600060208201905081810360008301526147678161472b565b9050919050565b7f4552433732313a207472616e736665722066726f6d20696e636f72726563742060008201527f6f776e6572000000000000000000000000000000000000000000000000000000602082015250565b60006147ca6025836134e0565b91506147d58261476e565b604082019050919050565b600060208201905081810360008301526147f9816147bd565b9050919050565b7f4552433732313a207472616e7366657220746f20746865207a65726f2061646460008201527f7265737300000000000000000000000000000000000000000000000000000000602082015250565b600061485c6024836134e0565b915061486782614800565b604082019050919050565b6000602082019050818103600083015261488b8161484f565b9050919050565b7f4552433732313a20617070726f766520746f2063616c6c657200000000000000600082015250565b60006148c86019836134e0565b91506148d382614892565b602082019050919050565b600060208201905081810360008301526148f7816148bb565b9050919050565b7f4552433732313a207472616e7366657220746f206e6f6e20455243373231526560008201527f63656976657220696d706c656d656e7465720000000000000000000000000000602082015250565b600061495a6032836134e0565b9150614965826148fe565b604082019050919050565b600060208201905081810360008301526149898161494d565b9050919050565b7f4e487b7100000000000000000000000000000000000000000000000000000000600052601260045260246000fd5b600081519050919050565b600082825260208201905092915050565b60006149e6826149bf565b6149f081856149ca565b9350614a008185602086016134f1565b614a098161351b565b840191505092915050565b6000608082019050614a2960008301876135b9565b614a3660208301866135b9565b614a4360408301856134ab565b8181036060830152614a5581846149db565b905095945050505050565b600081519050614a6f816133b9565b92915050565b600060208284031215614a8b57614a8a613383565b5b6000614a9984828501614a60565b91505092915050565b7f4552433732313a206d696e7420746f20746865207a65726f2061646472657373600082015250565b6000614ad86020836134e0565b9150614ae382614aa2565b602082019050919050565b60006020820190508181036000830152614b0781614acb565b9050919050565b7f4552433732313a20746f6b656e20616c7265616479206d696e74656400000000600082015250565b6000614b44601c836134e0565b9150614b4f82614b0e565b602082019050919050565b60006020820190508181036000830152614b7381614b37565b905091905056fea26469706673582212209b64ed724169d34c8624993f1b00ff27894d5c9ab6978ecf2b9d6b4bcccc7caa64736f6c63430008130033",
  "immutableReferences": {},
  "source": "// SPDX-License-Identifier: MIT\r\npragma solidity ^0.8.0;\r\n\r\n//used to import the ERC721 smart contract \r\nimport \"../node_modules/@openzeppelin/contracts/token/ERC721/ERC721.sol\";\r\n//import \"@openzeppelin/contracts/token/ERC721/ERC721.sol\";\r\n\r\n/*\r\nSolidity smart contract that inherits from ERC721, which is the standard interface \r\nfor non-fungible tokens (NFTs) on the Ethereum blockchain.\r\n*/\r\ncontract CodeSnippetNFT is ERC721 {\r\n\r\n    //max value\r\n    //uint256 MAX_VALUE = 115792089237316195423570985008687907853269984665640564;\r\n    uint256 MAX_VALUE = 99999999;\r\n    //manager of smart contract\r\n    address custodian;\r\n\r\n    //To represent the status of the code snippet\r\n    enum ApprovalStatus {notverified, verified, requested, requestapproved}\r\n\r\n    //To store the detais of the codesnippet\r\n    struct CodeSnippet {\r\n        string name;\r\n        string language;\r\n        string code;\r\n        uint256 price;\r\n        address currentOwner;\r\n        ApprovalStatus approvalStatus;\r\n        address requestedBy; \r\n    }\r\n\r\n    //Used to store the approved codesnippet tockenids\r\n    uint256[] public approvedCodeSnippetTokens;\r\n    //Used to store the pending approved codesnippet tockenids\r\n    uint256[] public pendingApprovalCodeSnippetTokens;\r\n\r\n    uint256[] public requestedCodeSnippetTokens;\r\n\r\n    //CodeSnippet[] private codeSnippets;\r\n    // Using the tokenids of codesnippet to identify the details of codesnippets uniquely\r\n    mapping (uint256 => CodeSnippet) public codeSnippets;\r\n\r\n    //mapping of creators with their tokenIds who created code snippets \r\n    mapping (address => uint256) creators;\r\n\r\n    mapping (address => uint256[]) addressTokens;\r\n\r\n    //Modifier to Check wherther the person tried to access is Custodian or not\r\n    modifier onlyCustodian(){\r\n        require(msg.sender == custodian);\r\n        _;\r\n    }\r\n\r\n   //Modifier to Check wherther sent amount is sufficien to buy the codesnippet or not\r\n    modifier validAmount(uint256 tokenId){\r\n        require(codeSnippets[tokenId].price == msg.value, \"Invalid amount to buy code snippet\");\r\n        _;\r\n    }\r\n    \r\n    //Modifier to Check given tockenid is valid or not\r\n    modifier validToken(uint256 tokenId){\r\n        require(_exists(tokenId), \"CodeSnippetNFT: Token does not exist\");\r\n        _;\r\n    }\r\n\r\n    //Modifier to Check whether the  seller is valid or not\r\n    modifier validSeller(uint256 tokenId){\r\n        require(codeSnippets[tokenId].currentOwner == msg.sender);\r\n        _;\r\n    }\r\n\r\n    constructor() ERC721(\"CodeSnippetNFT\", \"CSNFT\") \r\n    {\r\n        custodian = msg.sender;\r\n    }\r\n\r\n    function getCurrentTimeStamp() public view returns (uint256){\r\n        return block.timestamp;\r\n    }\r\n\r\n    function getCustodianAddress() public view returns (address){\r\n        return custodian;\r\n    }\r\n\r\n    function createCodeSnippet(string memory name, string memory language, string memory code, uint256 price) public returns(uint256)  {\r\n       //Using the time stamp as the unique Tocken id.\r\n        uint256 tokenId = getCurrentTimeStamp();\r\n        address creator = msg.sender;\r\n        //Creating the tocken for codesnippet\r\n        _safeMint(creator, tokenId);\r\n        approve(custodian, tokenId);\r\n        creators[creator] = tokenId;\r\n        addressTokens[creator].push(tokenId);\r\n        CodeSnippet memory newCodeSnippet =  CodeSnippet(name, language, code, price, creator, ApprovalStatus.notverified, address(0));\r\n        codeSnippets[tokenId] = newCodeSnippet;\r\n        pendingApprovalCodeSnippetTokens.push(tokenId);\r\n        return tokenId;\r\n    }\r\n\r\n    function getIndex(uint256[] memory arr, uint256 item)public view returns(uint256){\r\n        for(uint256 i = 0; i < arr.length; i++){\r\n            if(arr[i] == item)\r\n                return i;\r\n        }\r\n        return MAX_VALUE;\r\n    }\r\n\r\n    //function to approve the code snippets created by the developer to place on sale\r\n    function approveCodeSnippet(uint256 tokenId) public onlyCustodian  validToken(tokenId) returns(uint256[] memory, uint256[] memory, ApprovalStatus){\r\n        codeSnippets[tokenId].approvalStatus = ApprovalStatus.verified;\r\n\r\n        approvedCodeSnippetTokens.push(tokenId);\r\n        uint256 pendApprIndex = MAX_VALUE;\r\n        //getIndex(pendingApprovalCodeSnippetTokens, tokenId);\r\n        for(uint256 i = 0; i < pendingApprovalCodeSnippetTokens.length; i++){\r\n            if(pendingApprovalCodeSnippetTokens[i] == tokenId){\r\n                pendApprIndex = i;\r\n                break;\r\n            } \r\n        }\r\n        require(pendApprIndex != MAX_VALUE && pendApprIndex < pendingApprovalCodeSnippetTokens.length, \"CodeSnippetNFT: token not present in pending approval list\");\r\n        //delete pendingApprovalCodeSnippetTokens[pendApprIndex];\r\n        for(uint256 i = pendApprIndex; i < pendingApprovalCodeSnippetTokens.length - 1; i++){\r\n            pendingApprovalCodeSnippetTokens[i] = pendingApprovalCodeSnippetTokens[i+1];\r\n        }\r\n        pendingApprovalCodeSnippetTokens.pop();\r\n        return (pendingApprovalCodeSnippetTokens, approvedCodeSnippetTokens, codeSnippets[tokenId].approvalStatus);\r\n    }\r\n\r\n    function getPendingApprovalTokens() public view onlyCustodian returns(uint256[] memory){\r\n        uint256[] memory tokens = pendingApprovalCodeSnippetTokens;\r\n        return tokens;\r\n    }\r\n\r\n    function getApprovedTokens() public view returns(uint256[] memory){\r\n        uint256[] memory tokens = approvedCodeSnippetTokens;\r\n        return tokens;\r\n    }\r\n\r\n    function getrequestedTokens() public view returns(uint256[] memory){\r\n        uint256[] memory tokens = requestedCodeSnippetTokens;\r\n        return tokens;\r\n    }\r\n\r\n    //Function which is used by the owner to get their code snippet\r\n    function getCodeSnippet(uint256 _tokenId) public view validToken(_tokenId) returns (string memory, string memory, string memory, uint256, ApprovalStatus, address ){\r\n        //require(codeSnippets[_tokenId].currentOwner == msg.sender || msg.sender == custodian, \"Only owner/custodian can view code snippets\");\r\n        CodeSnippet memory codeSnippet = codeSnippets[_tokenId];\r\n        return (codeSnippet.name, codeSnippet.language, codeSnippet.code, codeSnippet.price, codeSnippet.approvalStatus, codeSnippet.currentOwner);\r\n    }\r\n\r\n    function requestCodeSnippet(uint256 tokenId) public payable validAmount(tokenId)\r\n    {\r\n        //remove from approved list\r\n        //uint256 apprIndex = getIndex(approvedCodeSnippetTokens, tokenId);\r\n        uint256 apprIndex = MAX_VALUE;\r\n        //getIndex(pendingApprovalCodeSnippetTokens, tokenId);\r\n        for(uint256 i = 0; i < approvedCodeSnippetTokens.length; i++){\r\n            if(approvedCodeSnippetTokens[i] == tokenId){\r\n                apprIndex = i;\r\n                break;\r\n            } \r\n        }\r\n        //delete approvedCodeSnippetTokens[apprIndex];\r\n        for(uint256 i = apprIndex; i < approvedCodeSnippetTokens.length - 1; i++){\r\n            approvedCodeSnippetTokens[i] = approvedCodeSnippetTokens[i+1];\r\n        }\r\n        approvedCodeSnippetTokens.pop();\r\n        requestedCodeSnippetTokens.push(tokenId);\r\n        codeSnippets[tokenId].requestedBy = msg.sender;\r\n        codeSnippets[tokenId].approvalStatus = ApprovalStatus.requested;\r\n        \r\n        //payable(address(this)).transfer(codeSnippets[tokenId].price);\r\n    }\r\n\r\n    //function for buying the code snippets available\r\n    function approveCodeSnippetRequestAndTransfer(uint256 tokenId) public payable {\r\n       \r\n        address payable currentOwner = payable(codeSnippets[tokenId].currentOwner);\r\n        uint256 price = codeSnippets[tokenId].price;\r\n        address _buyer = codeSnippets[tokenId].requestedBy;\r\n        //change owner\r\n        safeTransferFrom(currentOwner, _buyer, tokenId);\r\n        codeSnippets[tokenId].currentOwner = _buyer;\r\n\r\n        //transfer amount from buyer to original owner\r\n        currentOwner.transfer(price);\r\n\r\n        codeSnippets[tokenId].approvalStatus = ApprovalStatus.requestapproved;\r\n\r\n        uint256 reqIndex = MAX_VALUE;\r\n        //getIndex(pendingApprovalCodeSnippetTokens, tokenId);\r\n        for(uint256 i = 0; i < requestedCodeSnippetTokens.length; i++){\r\n            if(requestedCodeSnippetTokens[i] == tokenId){\r\n                reqIndex = i;\r\n                break;\r\n            } \r\n        }\r\n        //delete approvedCodeSnippetTokens[reqIndex];\r\n        for(uint256 i = reqIndex; i < requestedCodeSnippetTokens.length - 1; i++){\r\n            requestedCodeSnippetTokens[i] = requestedCodeSnippetTokens[i+1];\r\n        }\r\n        requestedCodeSnippetTokens.pop();\r\n\r\n        uint256 tokIndex = MAX_VALUE;\r\n        for(uint256 i = 0; i < addressTokens[currentOwner].length; i++){\r\n            if(addressTokens[currentOwner][i] == tokenId){\r\n                tokIndex = i;\r\n                break;\r\n            } \r\n        }\r\n        for(uint256 i = tokIndex; i < addressTokens[currentOwner].length - 1; i++){\r\n            addressTokens[currentOwner][i] = addressTokens[currentOwner][i+1];\r\n        }\r\n        addressTokens[currentOwner].pop();\r\n\r\n        addressTokens[_buyer].push(tokenId);\r\n        \r\n    }\r\n\r\n    function getMyTokens() public view returns(uint256[] memory)\r\n    {\r\n        address csowner = msg.sender;\r\n        return addressTokens[csowner];\r\n    }\r\n\r\n    //function to sell the code snippet\r\n    function sellCodeSnippet(uint256 tokenId, uint256 price) public validToken(tokenId) validSeller(tokenId) {\r\n        codeSnippets[tokenId].price = price;\r\n        codeSnippets[tokenId].approvalStatus = ApprovalStatus.verified;\r\n        approvedCodeSnippetTokens.push(tokenId);\r\n        approve(custodian, tokenId);\r\n    }\r\n}",
  "sourcePath": "C:\\Abhi\\UB\\Spring 2023\\Blockchain\\Project\\BlockChain_Phase2\\csnft-contract\\contracts\\csnft.sol",
  "compiler": {
    "name": "solc",
    "version": "0.8.19+commit.7dd6d404.Emscripten.clang"
  },
  "schemaVersion": "3.4.13",
  "updatedAt": "2023-04-30T00:33:14.707Z",
  "networkType": "ethereum",
  "devdoc": {
    "events": {
      "Approval(address,address,uint256)": {
        "details": "Emitted when `owner` enables `approved` to manage the `tokenId` token."
      },
      "ApprovalForAll(address,address,bool)": {
        "details": "Emitted when `owner` enables or disables (`approved`) `operator` to manage all of its assets."
      },
      "Transfer(address,address,uint256)": {
        "details": "Emitted when `tokenId` token is transferred from `from` to `to`."
      }
    },
    "kind": "dev",
    "methods": {
      "approve(address,uint256)": {
        "details": "See {IERC721-approve}."
      },
      "balanceOf(address)": {
        "details": "See {IERC721-balanceOf}."
      },
      "getApproved(uint256)": {
        "details": "See {IERC721-getApproved}."
      },
      "isApprovedForAll(address,address)": {
        "details": "See {IERC721-isApprovedForAll}."
      },
      "name()": {
        "details": "See {IERC721Metadata-name}."
      },
      "ownerOf(uint256)": {
        "details": "See {IERC721-ownerOf}."
      },
      "safeTransferFrom(address,address,uint256)": {
        "details": "See {IERC721-safeTransferFrom}."
      },
      "safeTransferFrom(address,address,uint256,bytes)": {
        "details": "See {IERC721-safeTransferFrom}."
      },
      "setApprovalForAll(address,bool)": {
        "details": "See {IERC721-setApprovalForAll}."
      },
      "supportsInterface(bytes4)": {
        "details": "See {IERC165-supportsInterface}."
      },
      "symbol()": {
        "details": "See {IERC721Metadata-symbol}."
      },
      "tokenURI(uint256)": {
        "details": "See {IERC721Metadata-tokenURI}."
      },
      "transferFrom(address,address,uint256)": {
        "details": "See {IERC721-transferFrom}."
      }
    },
    "version": 1
  },
  "userdoc": {
    "kind": "user",
    "methods": {},
    "version": 1
  }
}