{
  "contractName": "CodeSnippetNFT",
  "abi": [
    {
      "inputs": [],
      "stateMutability": "nonpayable",
      "type": "constructor"
    },
    {
      "anonymous": false,
      "inputs": [
        {
          "indexed": true,
          "internalType": "address",
          "name": "owner",
          "type": "address"
        },
        {
          "indexed": true,
          "internalType": "address",
          "name": "approved",
          "type": "address"
        },
        {
          "indexed": true,
          "internalType": "uint256",
          "name": "tokenId",
          "type": "uint256"
        }
      ],
      "name": "Approval",
      "type": "event"
    },
    {
      "anonymous": false,
      "inputs": [
        {
          "indexed": true,
          "internalType": "address",
          "name": "owner",
          "type": "address"
        },
        {
          "indexed": true,
          "internalType": "address",
          "name": "operator",
          "type": "address"
        },
        {
          "indexed": false,
          "internalType": "bool",
          "name": "approved",
          "type": "bool"
        }
      ],
      "name": "ApprovalForAll",
      "type": "event"
    },
    {
      "anonymous": false,
      "inputs": [
        {
          "indexed": true,
          "internalType": "address",
          "name": "from",
          "type": "address"
        },
        {
          "indexed": true,
          "internalType": "address",
          "name": "to",
          "type": "address"
        },
        {
          "indexed": true,
          "internalType": "uint256",
          "name": "tokenId",
          "type": "uint256"
        }
      ],
      "name": "Transfer",
      "type": "event"
    },
    {
      "inputs": [
        {
          "internalType": "address",
          "name": "to",
          "type": "address"
        },
        {
          "internalType": "uint256",
          "name": "tokenId",
          "type": "uint256"
        }
      ],
      "name": "approve",
      "outputs": [],
      "stateMutability": "nonpayable",
      "type": "function"
    },
    {
      "inputs": [
        {
          "internalType": "uint256",
          "name": "",
          "type": "uint256"
        }
      ],
      "name": "approvedCodeSnippetTokens",
      "outputs": [
        {
          "internalType": "uint256",
          "name": "",
          "type": "uint256"
        }
      ],
      "stateMutability": "view",
      "type": "function",
      "constant": true
    },
    {
      "inputs": [
        {
          "internalType": "address",
          "name": "owner",
          "type": "address"
        }
      ],
      "name": "balanceOf",
      "outputs": [
        {
          "internalType": "uint256",
          "name": "",
          "type": "uint256"
        }
      ],
      "stateMutability": "view",
      "type": "function",
      "constant": true
    },
    {
      "inputs": [
        {
          "internalType": "uint256",
          "name": "",
          "type": "uint256"
        }
      ],
      "name": "codeSnippets",
      "outputs": [
        {
          "internalType": "string",
          "name": "name",
          "type": "string"
        },
        {
          "internalType": "string",
          "name": "language",
          "type": "string"
        },
        {
          "internalType": "string",
          "name": "code",
          "type": "string"
        },
        {
          "internalType": "uint256",
          "name": "price",
          "type": "uint256"
        },
        {
          "internalType": "address",
          "name": "currentOwner",
          "type": "address"
        },
        {
          "internalType": "enum CodeSnippetNFT.ApprovalStatus",
          "name": "approvalStatus",
          "type": "uint8"
        },
        {
          "internalType": "address",
          "name": "requestedBy",
          "type": "address"
        }
      ],
      "stateMutability": "view",
      "type": "function",
      "constant": true
    },
    {
      "inputs": [
        {
          "internalType": "uint256",
          "name": "tokenId",
          "type": "uint256"
        }
      ],
      "name": "getApproved",
      "outputs": [
        {
          "internalType": "address",
          "name": "",
          "type": "address"
        }
      ],
      "stateMutability": "view",
      "type": "function",
      "constant": true
    },
    {
      "inputs": [
        {
          "internalType": "address",
          "name": "owner",
          "type": "address"
        },
        {
          "internalType": "address",
          "name": "operator",
          "type": "address"
        }
      ],
      "name": "isApprovedForAll",
      "outputs": [
        {
          "internalType": "bool",
          "name": "",
          "type": "bool"
        }
      ],
      "stateMutability": "view",
      "type": "function",
      "constant": true
    },
    {
      "inputs": [],
      "name": "name",
      "outputs": [
        {
          "internalType": "string",
          "name": "",
          "type": "string"
        }
      ],
      "stateMutability": "view",
      "type": "function",
      "constant": true
    },
    {
      "inputs": [
        {
          "internalType": "uint256",
          "name": "tokenId",
          "type": "uint256"
        }
      ],
      "name": "ownerOf",
      "outputs": [
        {
          "internalType": "address",
          "name": "",
          "type": "address"
        }
      ],
      "stateMutability": "view",
      "type": "function",
      "constant": true
    },
    {
      "inputs": [
        {
          "internalType": "uint256",
          "name": "",
          "type": "uint256"
        }
      ],
      "name": "pendingApprovalCodeSnippetTokens",
      "outputs": [
        {
          "internalType": "uint256",
          "name": "",
          "type": "uint256"
        }
      ],
      "stateMutability": "view",
      "type": "function",
      "constant": true
    },
    {
      "inputs": [
        {
          "internalType": "uint256",
          "name": "",
          "type": "uint256"
        }
      ],
      "name": "requestedCodeSnippetTokens",
      "outputs": [
        {
          "internalType": "uint256",
          "name": "",
          "type": "uint256"
        }
      ],
      "stateMutability": "view",
      "type": "function",
      "constant": true
    },
    {
      "inputs": [
        {
          "internalType": "address",
          "name": "from",
          "type": "address"
        },
        {
          "internalType": "address",
          "name": "to",
          "type": "address"
        },
        {
          "internalType": "uint256",
          "name": "tokenId",
          "type": "uint256"
        }
      ],
      "name": "safeTransferFrom",
      "outputs": [],
      "stateMutability": "nonpayable",
      "type": "function"
    },
    {
      "inputs": [
        {
          "internalType": "address",
          "name": "from",
          "type": "address"
        },
        {
          "internalType": "address",
          "name": "to",
          "type": "address"
        },
        {
          "internalType": "uint256",
          "name": "tokenId",
          "type": "uint256"
        },
        {
          "internalType": "bytes",
          "name": "data",
          "type": "bytes"
        }
      ],
      "name": "safeTransferFrom",
      "outputs": [],
      "stateMutability": "nonpayable",
      "type": "function"
    },
    {
      "inputs": [
        {
          "internalType": "address",
          "name": "operator",
          "type": "address"
        },
        {
          "internalType": "bool",
          "name": "approved",
          "type": "bool"
        }
      ],
      "name": "setApprovalForAll",
      "outputs": [],
      "stateMutability": "nonpayable",
      "type": "function"
    },
    {
      "inputs": [
        {
          "internalType": "bytes4",
          "name": "interfaceId",
          "type": "bytes4"
        }
      ],
      "name": "supportsInterface",
      "outputs": [
        {
          "internalType": "bool",
          "name": "",
          "type": "bool"
        }
      ],
      "stateMutability": "view",
      "type": "function",
      "constant": true
    },
    {
      "inputs": [],
      "name": "symbol",
      "outputs": [
        {
          "internalType": "string",
          "name": "",
          "type": "string"
        }
      ],
      "stateMutability": "view",
      "type": "function",
      "constant": true
    },
    {
      "inputs": [
        {
          "internalType": "uint256",
          "name": "tokenId",
          "type": "uint256"
        }
      ],
      "name": "tokenURI",
      "outputs": [
        {
          "internalType": "string",
          "name": "",
          "type": "string"
        }
      ],
      "stateMutability": "view",
      "type": "function",
      "constant": true
    },
    {
      "inputs": [
        {
          "internalType": "address",
          "name": "from",
          "type": "address"
        },
        {
          "internalType": "address",
          "name": "to",
          "type": "address"
        },
        {
          "internalType": "uint256",
          "name": "tokenId",
          "type": "uint256"
        }
      ],
      "name": "transferFrom",
      "outputs": [],
      "stateMutability": "nonpayable",
      "type": "function"
    },
    {
      "inputs": [],
      "name": "getCurrentTimeStamp",
      "outputs": [
        {
          "internalType": "uint256",
          "name": "",
          "type": "uint256"
        }
      ],
      "stateMutability": "view",
      "type": "function",
      "constant": true
    },
    {
      "inputs": [],
      "name": "getCustodianAddress",
      "outputs": [
        {
          "internalType": "address",
          "name": "",
          "type": "address"
        }
      ],
      "stateMutability": "view",
      "type": "function",
      "constant": true
    },
    {
      "inputs": [
        {
          "internalType": "string",
          "name": "name",
          "type": "string"
        },
        {
          "internalType": "string",
          "name": "language",
          "type": "string"
        },
        {
          "internalType": "string",
          "name": "code",
          "type": "string"
        },
        {
          "internalType": "uint256",
          "name": "price",
          "type": "uint256"
        }
      ],
      "name": "createCodeSnippet",
      "outputs": [],
      "stateMutability": "nonpayable",
      "type": "function"
    },
    {
      "inputs": [
        {
          "internalType": "uint256[]",
          "name": "arr",
          "type": "uint256[]"
        },
        {
          "internalType": "uint256",
          "name": "item",
          "type": "uint256"
        }
      ],
      "name": "getIndex",
      "outputs": [
        {
          "internalType": "uint256",
          "name": "",
          "type": "uint256"
        }
      ],
      "stateMutability": "view",
      "type": "function",
      "constant": true
    },
    {
      "inputs": [
        {
          "internalType": "uint256",
          "name": "tokenId",
          "type": "uint256"
        }
      ],
      "name": "approveCodeSnippet",
      "outputs": [
        {
          "internalType": "uint256[]",
          "name": "",
          "type": "uint256[]"
        },
        {
          "internalType": "uint256[]",
          "name": "",
          "type": "uint256[]"
        },
        {
          "internalType": "enum CodeSnippetNFT.ApprovalStatus",
          "name": "",
          "type": "uint8"
        }
      ],
      "stateMutability": "nonpayable",
      "type": "function"
    },
    {
      "inputs": [],
      "name": "getPendingApprovalTokens",
      "outputs": [
        {
          "internalType": "uint256[]",
          "name": "",
          "type": "uint256[]"
        }
      ],
      "stateMutability": "view",
      "type": "function",
      "constant": true
    },
    {
      "inputs": [],
      "name": "getApprovedTokens",
      "outputs": [
        {
          "internalType": "uint256[]",
          "name": "",
          "type": "uint256[]"
        }
      ],
      "stateMutability": "view",
      "type": "function",
      "constant": true
    },
    {
      "inputs": [],
      "name": "getrequestedTokens",
      "outputs": [
        {
          "internalType": "uint256[]",
          "name": "",
          "type": "uint256[]"
        }
      ],
      "stateMutability": "view",
      "type": "function",
      "constant": true
    },
    {
      "inputs": [
        {
          "internalType": "uint256",
          "name": "_tokenId",
          "type": "uint256"
        }
      ],
      "name": "getCodeSnippet",
      "outputs": [
        {
          "internalType": "string",
          "name": "",
          "type": "string"
        },
        {
          "internalType": "string",
          "name": "",
          "type": "string"
        },
        {
          "internalType": "string",
          "name": "",
          "type": "string"
        },
        {
          "internalType": "uint256",
          "name": "",
          "type": "uint256"
        },
        {
          "internalType": "enum CodeSnippetNFT.ApprovalStatus",
          "name": "",
          "type": "uint8"
        },
        {
          "internalType": "address",
          "name": "",
          "type": "address"
        }
      ],
      "stateMutability": "view",
      "type": "function",
      "constant": true
    },
    {
      "inputs": [
        {
          "internalType": "uint256",
          "name": "tokenId",
          "type": "uint256"
        }
      ],
      "name": "requestCodeSnippet",
      "outputs": [],
      "stateMutability": "payable",
      "type": "function",
      "payable": true
    },
    {
      "inputs": [
        {
          "internalType": "uint256",
          "name": "tokenId",
          "type": "uint256"
        }
      ],
      "name": "approveCodeSnippetRequestAndTransfer",
      "outputs": [],
      "stateMutability": "payable",
      "type": "function",
      "payable": true
    },
    {
      "inputs": [],
      "name": "getMyTokens",
      "outputs": [
        {
          "internalType": "uint256[]",
          "name": "",
          "type": "uint256[]"
        }
      ],
      "stateMutability": "view",
      "type": "function",
      "constant": true
    },
    {
      "inputs": [
        {
          "internalType": "uint256",
          "name": "tokenId",
          "type": "uint256"
        },
        {
          "internalType": "uint256",
          "name": "price",
          "type": "uint256"
        }
      ],
      "name": "sellCodeSnippet",
      "outputs": [],
      "stateMutability": "nonpayable",
      "type": "function"
    }
  ],
  "bytecode": "0x60806040526305f5e0ff6006553480156200001957600080fd5b506040518060400160405280600e81526020017f436f6465536e69707065744e46540000000000000000000000000000000000008152506040518060400160405280600581526020017f43534e465400000000000000000000000000000000000000000000000000000081525081600090816200009791906200036d565b508060019081620000a991906200036d565b50505033600760006101000a81548173ffffffffffffffffffffffffffffffffffffffff021916908373ffffffffffffffffffffffffffffffffffffffff16021790555062000454565b600081519050919050565b7f4e487b7100000000000000000000000000000000000000000000000000000000600052604160045260246000fd5b7f4e487b7100000000000000000000000000000000000000000000000000000000600052602260045260246000fd5b600060028204905060018216806200017557607f821691505b6020821081036200018b576200018a6200012d565b5b50919050565b60008190508160005260206000209050919050565b60006020601f8301049050919050565b600082821b905092915050565b600060088302620001f57fffffffffffffffffffffffffffffffffffffffffffffffffffffffffffffffff82620001b6565b620002018683620001b6565b95508019841693508086168417925050509392505050565b6000819050919050565b6000819050919050565b60006200024e62000248620002428462000219565b62000223565b62000219565b9050919050565b6000819050919050565b6200026a836200022d565b62000282620002798262000255565b848454620001c3565b825550505050565b600090565b620002996200028a565b620002a68184846200025f565b505050565b5b81811015620002ce57620002c26000826200028f565b600181019050620002ac565b5050565b601f8211156200031d57620002e78162000191565b620002f284620001a6565b8101602085101562000302578190505b6200031a6200031185620001a6565b830182620002ab565b50505b505050565b600082821c905092915050565b6000620003426000198460080262000322565b1980831691505092915050565b60006200035d83836200032f565b9150826002028217905092915050565b6200037882620000f3565b67ffffffffffffffff811115620003945762000393620000fe565b5b620003a082546200015c565b620003ad828285620002d2565b600060209050601f831160018114620003e55760008415620003d0578287015190505b620003dc85826200034f565b8655506200044c565b601f198416620003f58662000191565b60005b828110156200041f57848901518255600182019150602085019450602081019050620003f8565b868310156200043f57848901516200043b601f8916826200032f565b8355505b6001600288020188555050505b505050505050565b614ca880620004646000396000f3fe6080604052600436106101cd5760003560e01c80637e5e219c116100f7578063c7c16c9f11610095578063e985e9c511610064578063e985e9c5146106e6578063eb66433014610723578063eecc15981461073f578063fc4c601c1461077c576101cd565b8063c7c16c9f14610613578063c87b56dd1461063e578063e2da6cb31461067b578063e70dd040146106a4576101cd565b80639bca7c32116100d15780639bca7c3214610557578063a22cb46514610596578063b88d4fde146105bf578063b9674411146105e8576101cd565b80637e5e219c146104c457806390aeada2146104ef57806395d89b411461052c576101cd565b806342842e0e1161016f5780636352211e1161013e5780636352211e146103e25780636aba7e331461041f5780636afc0c5f1461045c57806370a0823114610487576101cd565b806342842e0e146103495780635b3b136a146103725780635d9b8d551461039d5780635fdeb54c146103b9576101cd565b8063081812fc116101ab578063081812fc14610277578063095ea7b3146102b457806323b872dd146102dd578063400c04c514610306576101cd565b806301ffc9a7146101d257806305661a8b1461020f57806306fdde031461024c575b600080fd5b3480156101de57600080fd5b506101f960048036038101906101f4919061346a565b6107a7565b60405161020691906134b2565b60405180910390f35b34801561021b57600080fd5b5061023660048036038101906102319190613503565b610889565b604051610243919061353f565b60405180910390f35b34801561025857600080fd5b506102616108ad565b60405161026e91906135ea565b60405180910390f35b34801561028357600080fd5b5061029e60048036038101906102999190613503565b61093f565b6040516102ab919061364d565b60405180910390f35b3480156102c057600080fd5b506102db60048036038101906102d69190613694565b610985565b005b3480156102e957600080fd5b5061030460048036038101906102ff91906136d4565b610a9c565b005b34801561031257600080fd5b5061032d60048036038101906103289190613503565b610afc565b604051610340979695949392919061379e565b60405180910390f35b34801561035557600080fd5b50610370600480360381019061036b91906136d4565b610d23565b005b34801561037e57600080fd5b50610387610d43565b60405161039491906138e0565b60405180910390f35b6103b760048036038101906103b29190613503565b610dde565b005b3480156103c557600080fd5b506103e060048036038101906103db9190613a37565b6113d0565b005b3480156103ee57600080fd5b5061040960048036038101906104049190613503565b61168b565b604051610416919061364d565b60405180910390f35b34801561042b57600080fd5b5061044660048036038101906104419190613503565b611711565b604051610453919061353f565b60405180910390f35b34801561046857600080fd5b50610471611735565b60405161047e91906138e0565b60405180910390f35b34801561049357600080fd5b506104ae60048036038101906104a99190613af2565b611793565b6040516104bb919061353f565b60405180910390f35b3480156104d057600080fd5b506104d961184a565b6040516104e6919061353f565b60405180910390f35b3480156104fb57600080fd5b5061051660048036038101906105119190613be7565b611852565b604051610523919061353f565b60405180910390f35b34801561053857600080fd5b506105416118ad565b60405161054e91906135ea565b60405180910390f35b34801561056357600080fd5b5061057e60048036038101906105799190613503565b61193f565b60405161058d93929190613c43565b60405180910390f35b3480156105a257600080fd5b506105bd60048036038101906105b89190613cb4565b611c7f565b005b3480156105cb57600080fd5b506105e660048036038101906105e19190613d95565b611c95565b005b3480156105f457600080fd5b506105fd611cf7565b60405161060a91906138e0565b60405180910390f35b34801561061f57600080fd5b50610628611daf565b60405161063591906138e0565b60405180910390f35b34801561064a57600080fd5b5061066560048036038101906106609190613503565b611e0d565b60405161067291906135ea565b60405180910390f35b34801561068757600080fd5b506106a2600480360381019061069d9190613e18565b611e75565b005b3480156106b057600080fd5b506106cb60048036038101906106c69190613503565b611fe2565b6040516106dd96959493929190613e58565b60405180910390f35b3480156106f257600080fd5b5061070d60048036038101906107089190613ece565b612333565b60405161071a91906134b2565b60405180910390f35b61073d60048036038101906107389190613503565b6123c7565b005b34801561074b57600080fd5b5061076660048036038101906107619190613503565b6125e2565b604051610773919061353f565b60405180910390f35b34801561078857600080fd5b50610791612606565b60405161079e919061364d565b60405180910390f35b60007f80ac58cd000000000000000000000000000000000000000000000000000000007bffffffffffffffffffffffffffffffffffffffffffffffffffffffff1916827bffffffffffffffffffffffffffffffffffffffffffffffffffffffff1916148061087257507f5b5e139f000000000000000000000000000000000000000000000000000000007bffffffffffffffffffffffffffffffffffffffffffffffffffffffff1916827bffffffffffffffffffffffffffffffffffffffffffffffffffffffff1916145b80610882575061088182612630565b5b9050919050565b6009818154811061089957600080fd5b906000526020600020016000915090505481565b6060600080546108bc90613f3d565b80601f01602080910402602001604051908101604052809291908181526020018280546108e890613f3d565b80156109355780601f1061090a57610100808354040283529160200191610935565b820191906000526020600020905b81548152906001019060200180831161091857829003601f168201915b5050505050905090565b600061094a8261269a565b6004600083815260200190815260200160002060009054906101000a900473ffffffffffffffffffffffffffffffffffffffff169050919050565b60006109908261168b565b90508073ffffffffffffffffffffffffffffffffffffffff168373ffffffffffffffffffffffffffffffffffffffff1603610a00576040517f08c379a00000000000000000000000000000000000000000000000000000000081526004016109f790613fe0565b60405180910390fd5b8073ffffffffffffffffffffffffffffffffffffffff16610a1f6126e5565b73ffffffffffffffffffffffffffffffffffffffff161480610a4e5750610a4d81610a486126e5565b612333565b5b610a8d576040517f08c379a0000000000000000000000000000000000000000000000000000000008152600401610a8490614072565b60405180910390fd5b610a9783836126ed565b505050565b610aad610aa76126e5565b826127a6565b610aec576040517f08c379a0000000000000000000000000000000000000000000000000000000008152600401610ae390614104565b60405180910390fd5b610af783838361283b565b505050565b600b602052806000526040600020600091509050806000018054610b1f90613f3d565b80601f0160208091040260200160405190810160405280929190818152602001828054610b4b90613f3d565b8015610b985780601f10610b6d57610100808354040283529160200191610b98565b820191906000526020600020905b815481529060010190602001808311610b7b57829003601f168201915b505050505090806001018054610bad90613f3d565b80601f0160208091040260200160405190810160405280929190818152602001828054610bd990613f3d565b8015610c265780601f10610bfb57610100808354040283529160200191610c26565b820191906000526020600020905b815481529060010190602001808311610c0957829003601f168201915b505050505090806002018054610c3b90613f3d565b80601f0160208091040260200160405190810160405280929190818152602001828054610c6790613f3d565b8015610cb45780601f10610c8957610100808354040283529160200191610cb4565b820191906000526020600020905b815481529060010190602001808311610c9757829003601f168201915b5050505050908060030154908060040160009054906101000a900473ffffffffffffffffffffffffffffffffffffffff16908060040160149054906101000a900460ff16908060050160009054906101000a900473ffffffffffffffffffffffffffffffffffffffff16905087565b610d3e83838360405180602001604052806000815250611c95565b505050565b60606000339050600d60008273ffffffffffffffffffffffffffffffffffffffff1673ffffffffffffffffffffffffffffffffffffffff168152602001908152602001600020805480602002602001604051908101604052809291908181526020018280548015610dd357602002820191906000526020600020905b815481526020019060010190808311610dbf575b505050505091505090565b6000600b600083815260200190815260200160002060040160009054906101000a900473ffffffffffffffffffffffffffffffffffffffff1690506000600b60008481526020019081526020016000206003015490506000600b600085815260200190815260200160002060050160009054906101000a900473ffffffffffffffffffffffffffffffffffffffff169050610e7a838286610d23565b80600b600086815260200190815260200160002060040160006101000a81548173ffffffffffffffffffffffffffffffffffffffff021916908373ffffffffffffffffffffffffffffffffffffffff1602179055506000600760009054906101000a900473ffffffffffffffffffffffffffffffffffffffff1690508373ffffffffffffffffffffffffffffffffffffffff166108fc6064605a86610f1f9190614153565b610f2991906141c4565b9081150290604051600060405180830381858888f19350505050158015610f54573d6000803e3d6000fd5b508073ffffffffffffffffffffffffffffffffffffffff166108fc6064600a86610f7e9190614153565b610f8891906141c4565b9081150290604051600060405180830381858888f19350505050158015610fb3573d6000803e3d6000fd5b506003600b600087815260200190815260200160002060040160146101000a81548160ff02191690836003811115610fee57610fed613727565b5b02179055506000600654905060005b600a8054905081101561104a5786600a828154811061101f5761101e6141f5565b5b9060005260206000200154036110375780915061104a565b808061104290614224565b915050610ffd565b5060008190505b6001600a80549050611063919061426c565b8110156110ca57600a60018261107991906142a0565b8154811061108a576110896141f5565b5b9060005260206000200154600a82815481106110a9576110a86141f5565b5b906000526020600020018190555080806110c290614224565b915050611051565b50600a8054806110dd576110dc6142d4565b5b600190038181906000526020600020016000905590556000600654905060005b600d60008873ffffffffffffffffffffffffffffffffffffffff1673ffffffffffffffffffffffffffffffffffffffff168152602001908152602001600020805490508110156111c45787600d60008973ffffffffffffffffffffffffffffffffffffffff1673ffffffffffffffffffffffffffffffffffffffff1681526020019081526020016000208281548110611199576111986141f5565b5b9060005260206000200154036111b1578091506111c4565b80806111bc90614224565b9150506110fd565b5060008190505b6001600d60008973ffffffffffffffffffffffffffffffffffffffff1673ffffffffffffffffffffffffffffffffffffffff1681526020019081526020016000208054905061121a919061426c565b8110156112fb57600d60008873ffffffffffffffffffffffffffffffffffffffff1673ffffffffffffffffffffffffffffffffffffffff16815260200190815260200160002060018261126d91906142a0565b8154811061127e5761127d6141f5565b5b9060005260206000200154600d60008973ffffffffffffffffffffffffffffffffffffffff1673ffffffffffffffffffffffffffffffffffffffff16815260200190815260200160002082815481106112da576112d96141f5565b5b906000526020600020018190555080806112f390614224565b9150506111cb565b50600d60008773ffffffffffffffffffffffffffffffffffffffff1673ffffffffffffffffffffffffffffffffffffffff16815260200190815260200160002080548061134b5761134a6142d4565b5b60019003818190600052602060002001600090559055600d60008573ffffffffffffffffffffffffffffffffffffffff1673ffffffffffffffffffffffffffffffffffffffff16815260200190815260200160002087908060018154018082558091505060019003906000526020600020016000909190919091505550505050505050565b60006113da61184a565b905060003390506113eb8183612b34565b611417600760009054906101000a900473ffffffffffffffffffffffffffffffffffffffff1683610985565b81600c60008373ffffffffffffffffffffffffffffffffffffffff1673ffffffffffffffffffffffffffffffffffffffff16815260200190815260200160002081905550600d60008273ffffffffffffffffffffffffffffffffffffffff1673ffffffffffffffffffffffffffffffffffffffff16815260200190815260200160002082908060018154018082558091505060019003906000526020600020016000909190919091505560006040518060e001604052808881526020018781526020018681526020018581526020018373ffffffffffffffffffffffffffffffffffffffff1681526020016000600381111561151657611515613727565b5b8152602001600073ffffffffffffffffffffffffffffffffffffffff16815250905080600b6000858152602001908152602001600020600082015181600001908161156191906144af565b50602082015181600101908161157791906144af565b50604082015181600201908161158d91906144af565b506060820151816003015560808201518160040160006101000a81548173ffffffffffffffffffffffffffffffffffffffff021916908373ffffffffffffffffffffffffffffffffffffffff16021790555060a08201518160040160146101000a81548160ff0219169083600381111561160a57611609613727565b5b021790555060c08201518160050160006101000a81548173ffffffffffffffffffffffffffffffffffffffff021916908373ffffffffffffffffffffffffffffffffffffffff160217905550905050600983908060018154018082558091505060019003906000526020600020016000909190919091505550505050505050565b60008061169783612b52565b9050600073ffffffffffffffffffffffffffffffffffffffff168173ffffffffffffffffffffffffffffffffffffffff1603611708576040517f08c379a00000000000000000000000000000000000000000000000000000000081526004016116ff906145cd565b60405180910390fd5b80915050919050565b600a818154811061172157600080fd5b906000526020600020016000915090505481565b60606000600880548060200260200160405190810160405280929190818152602001828054801561178557602002820191906000526020600020905b815481526020019060010190808311611771575b505050505090508091505090565b60008073ffffffffffffffffffffffffffffffffffffffff168273ffffffffffffffffffffffffffffffffffffffff1603611803576040517f08c379a00000000000000000000000000000000000000000000000000000000081526004016117fa9061465f565b60405180910390fd5b600360008373ffffffffffffffffffffffffffffffffffffffff1673ffffffffffffffffffffffffffffffffffffffff168152602001908152602001600020549050919050565b600042905090565b600080600090505b83518110156118a05782848281518110611877576118766141f5565b5b60200260200101510361188d57809150506118a7565b808061189890614224565b91505061185a565b5060065490505b92915050565b6060600180546118bc90613f3d565b80601f01602080910402602001604051908101604052809291908181526020018280546118e890613f3d565b80156119355780601f1061190a57610100808354040283529160200191611935565b820191906000526020600020905b81548152906001019060200180831161191857829003601f168201915b5050505050905090565b6060806000600760009054906101000a900473ffffffffffffffffffffffffffffffffffffffff1673ffffffffffffffffffffffffffffffffffffffff163373ffffffffffffffffffffffffffffffffffffffff161461199e57600080fd5b836119a881612b8f565b6119e7576040517f08c379a00000000000000000000000000000000000000000000000000000000081526004016119de906146f1565b60405180910390fd5b6001600b600087815260200190815260200160002060040160146101000a81548160ff02191690836003811115611a2157611a20613727565b5b021790555060088590806001815401808255809150506001900390600052602060002001600090919091909150556000600654905060005b600980549050811015611aa6578660098281548110611a7b57611a7a6141f5565b5b906000526020600020015403611a9357809150611aa6565b8080611a9e90614224565b915050611a59565b506006548114158015611abd575060098054905081105b611afc576040517f08c379a0000000000000000000000000000000000000000000000000000000008152600401611af390614783565b60405180910390fd5b60008190505b6001600980549050611b14919061426c565b811015611b7b576009600182611b2a91906142a0565b81548110611b3b57611b3a6141f5565b5b906000526020600020015460098281548110611b5a57611b596141f5565b5b90600052602060002001819055508080611b7390614224565b915050611b02565b506009805480611b8e57611b8d6142d4565b5b6001900381819060005260206000200160009055905560096008600b600089815260200190815260200160002060040160149054906101000a900460ff1682805480602002602001604051908101604052809291908181526020018280548015611c1757602002820191906000526020600020905b815481526020019060010190808311611c03575b5050505050925081805480602002602001604051908101604052809291908181526020018280548015611c6957602002820191906000526020600020905b815481526020019060010190808311611c55575b5050505050915094509450945050509193909250565b611c91611c8a6126e5565b8383612bd0565b5050565b611ca6611ca06126e5565b836127a6565b611ce5576040517f08c379a0000000000000000000000000000000000000000000000000000000008152600401611cdc90614104565b60405180910390fd5b611cf184848484612d3c565b50505050565b6060600760009054906101000a900473ffffffffffffffffffffffffffffffffffffffff1673ffffffffffffffffffffffffffffffffffffffff163373ffffffffffffffffffffffffffffffffffffffff1614611d5357600080fd5b60006009805480602002602001604051908101604052809291908181526020018280548015611da157602002820191906000526020600020905b815481526020019060010190808311611d8d575b505050505090508091505090565b60606000600a805480602002602001604051908101604052809291908181526020018280548015611dff57602002820191906000526020600020905b815481526020019060010190808311611deb575b505050505090508091505090565b6060611e188261269a565b6000611e22612d98565b90506000815111611e425760405180602001604052806000815250611e6d565b80611e4c84612daf565b604051602001611e5d9291906147df565b6040516020818303038152906040525b915050919050565b81611e7f81612b8f565b611ebe576040517f08c379a0000000000000000000000000000000000000000000000000000000008152600401611eb5906146f1565b60405180910390fd5b823373ffffffffffffffffffffffffffffffffffffffff16600b600083815260200190815260200160002060040160009054906101000a900473ffffffffffffffffffffffffffffffffffffffff1673ffffffffffffffffffffffffffffffffffffffff1614611f2d57600080fd5b82600b6000868152602001908152602001600020600301819055506001600b600086815260200190815260200160002060040160146101000a81548160ff02191690836003811115611f8257611f81613727565b5b02179055506008849080600181540180825580915050600190039060005260206000200160009091909190915055611fdc600760009054906101000a900473ffffffffffffffffffffffffffffffffffffffff1685610985565b50505050565b6060806060600080600086611ff681612b8f565b612035576040517f08c379a000000000000000000000000000000000000000000000000000000000815260040161202c906146f1565b60405180910390fd5b6000600b60008a81526020019081526020016000206040518060e001604052908160008201805461206590613f3d565b80601f016020809104026020016040519081016040528092919081815260200182805461209190613f3d565b80156120de5780601f106120b3576101008083540402835291602001916120de565b820191906000526020600020905b8154815290600101906020018083116120c157829003601f168201915b505050505081526020016001820180546120f790613f3d565b80601f016020809104026020016040519081016040528092919081815260200182805461212390613f3d565b80156121705780601f1061214557610100808354040283529160200191612170565b820191906000526020600020905b81548152906001019060200180831161215357829003601f168201915b5050505050815260200160028201805461218990613f3d565b80601f01602080910402602001604051908101604052809291908181526020018280546121b590613f3d565b80156122025780601f106121d757610100808354040283529160200191612202565b820191906000526020600020905b8154815290600101906020018083116121e557829003601f168201915b50505050508152602001600382015481526020016004820160009054906101000a900473ffffffffffffffffffffffffffffffffffffffff1673ffffffffffffffffffffffffffffffffffffffff1673ffffffffffffffffffffffffffffffffffffffff1681526020016004820160149054906101000a900460ff1660038111156122905761228f613727565b5b60038111156122a2576122a1613727565b5b81526020016005820160009054906101000a900473ffffffffffffffffffffffffffffffffffffffff1673ffffffffffffffffffffffffffffffffffffffff1673ffffffffffffffffffffffffffffffffffffffff1681525050905080600001518160200151826040015183606001518460a001518560800151975097509750975097509750505091939550919395565b6000600560008473ffffffffffffffffffffffffffffffffffffffff1673ffffffffffffffffffffffffffffffffffffffff16815260200190815260200160002060008373ffffffffffffffffffffffffffffffffffffffff1673ffffffffffffffffffffffffffffffffffffffff16815260200190815260200160002060009054906101000a900460ff16905092915050565b8034600b60008381526020019081526020016000206003015414612420576040517f08c379a000000000000000000000000000000000000000000000000000000000815260040161241790614875565b60405180910390fd5b6000600654905060005b60088054905081101561247757836008828154811061244c5761244b6141f5565b5b90600052602060002001540361246457809150612477565b808061246f90614224565b91505061242a565b5060008190505b6001600880549050612490919061426c565b8110156124f75760086001826124a691906142a0565b815481106124b7576124b66141f5565b5b9060005260206000200154600882815481106124d6576124d56141f5565b5b906000526020600020018190555080806124ef90614224565b91505061247e565b50600880548061250a576125096142d4565b5b60019003818190600052602060002001600090559055600a83908060018154018082558091505060019003906000526020600020016000909190919091505533600b600085815260200190815260200160002060050160006101000a81548173ffffffffffffffffffffffffffffffffffffffff021916908373ffffffffffffffffffffffffffffffffffffffff1602179055506002600b600085815260200190815260200160002060040160146101000a81548160ff021916908360038111156125d8576125d7613727565b5b0217905550505050565b600881815481106125f257600080fd5b906000526020600020016000915090505481565b6000600760009054906101000a900473ffffffffffffffffffffffffffffffffffffffff16905090565b60007f01ffc9a7000000000000000000000000000000000000000000000000000000007bffffffffffffffffffffffffffffffffffffffffffffffffffffffff1916827bffffffffffffffffffffffffffffffffffffffffffffffffffffffff1916149050919050565b6126a381612b8f565b6126e2576040517f08c379a00000000000000000000000000000000000000000000000000000000081526004016126d9906145cd565b60405180910390fd5b50565b600033905090565b816004600083815260200190815260200160002060006101000a81548173ffffffffffffffffffffffffffffffffffffffff021916908373ffffffffffffffffffffffffffffffffffffffff160217905550808273ffffffffffffffffffffffffffffffffffffffff166127608361168b565b73ffffffffffffffffffffffffffffffffffffffff167f8c5be1e5ebec7d5bd14f71427d1e84f3dd0314c0f7b2291e5b200ac8c7c3b92560405160405180910390a45050565b6000806127b28361168b565b90508073ffffffffffffffffffffffffffffffffffffffff168473ffffffffffffffffffffffffffffffffffffffff1614806127f457506127f38185612333565b5b8061283257508373ffffffffffffffffffffffffffffffffffffffff1661281a8461093f565b73ffffffffffffffffffffffffffffffffffffffff16145b91505092915050565b8273ffffffffffffffffffffffffffffffffffffffff1661285b8261168b565b73ffffffffffffffffffffffffffffffffffffffff16146128b1576040517f08c379a00000000000000000000000000000000000000000000000000000000081526004016128a890614907565b60405180910390fd5b600073ffffffffffffffffffffffffffffffffffffffff168273ffffffffffffffffffffffffffffffffffffffff1603612920576040517f08c379a000000000000000000000000000000000000000000000000000000000815260040161291790614999565b60405180910390fd5b61292d8383836001612e7d565b8273ffffffffffffffffffffffffffffffffffffffff1661294d8261168b565b73ffffffffffffffffffffffffffffffffffffffff16146129a3576040517f08c379a000000000000000000000000000000000000000000000000000000000815260040161299a90614907565b60405180910390fd5b6004600082815260200190815260200160002060006101000a81549073ffffffffffffffffffffffffffffffffffffffff02191690556001600360008573ffffffffffffffffffffffffffffffffffffffff1673ffffffffffffffffffffffffffffffffffffffff168152602001908152602001600020600082825403925050819055506001600360008473ffffffffffffffffffffffffffffffffffffffff1673ffffffffffffffffffffffffffffffffffffffff16815260200190815260200160002060008282540192505081905550816002600083815260200190815260200160002060006101000a81548173ffffffffffffffffffffffffffffffffffffffff021916908373ffffffffffffffffffffffffffffffffffffffff160217905550808273ffffffffffffffffffffffffffffffffffffffff168473ffffffffffffffffffffffffffffffffffffffff167fddf252ad1be2c89b69c2b068fc378daa952ba7f163c4a11628f55a4df523b3ef60405160405180910390a4612b2f8383836001612e83565b505050565b612b4e828260405180602001604052806000815250612e89565b5050565b60006002600083815260200190815260200160002060009054906101000a900473ffffffffffffffffffffffffffffffffffffffff169050919050565b60008073ffffffffffffffffffffffffffffffffffffffff16612bb183612b52565b73ffffffffffffffffffffffffffffffffffffffff1614159050919050565b8173ffffffffffffffffffffffffffffffffffffffff168373ffffffffffffffffffffffffffffffffffffffff1603612c3e576040517f08c379a0000000000000000000000000000000000000000000000000000000008152600401612c3590614a05565b60405180910390fd5b80600560008573ffffffffffffffffffffffffffffffffffffffff1673ffffffffffffffffffffffffffffffffffffffff16815260200190815260200160002060008473ffffffffffffffffffffffffffffffffffffffff1673ffffffffffffffffffffffffffffffffffffffff16815260200190815260200160002060006101000a81548160ff0219169083151502179055508173ffffffffffffffffffffffffffffffffffffffff168373ffffffffffffffffffffffffffffffffffffffff167f17307eab39ab6107e8899845ad3d59bd9653f200f220920489ca2b5937696c3183604051612d2f91906134b2565b60405180910390a3505050565b612d4784848461283b565b612d5384848484612ee4565b612d92576040517f08c379a0000000000000000000000000000000000000000000000000000000008152600401612d8990614a97565b60405180910390fd5b50505050565b606060405180602001604052806000815250905090565b606060006001612dbe8461306b565b01905060008167ffffffffffffffff811115612ddd57612ddc61390c565b5b6040519080825280601f01601f191660200182016040528015612e0f5781602001600182028036833780820191505090505b509050600082602001820190505b600115612e72578080600190039150507f3031323334353637383961626364656600000000000000000000000000000000600a86061a8153600a8581612e6657612e65614195565b5b04945060008503612e1d575b819350505050919050565b50505050565b50505050565b612e9383836131be565b612ea06000848484612ee4565b612edf576040517f08c379a0000000000000000000000000000000000000000000000000000000008152600401612ed690614a97565b60405180910390fd5b505050565b6000612f058473ffffffffffffffffffffffffffffffffffffffff166133db565b1561305e578373ffffffffffffffffffffffffffffffffffffffff1663150b7a02612f2e6126e5565b8786866040518563ffffffff1660e01b8152600401612f509493929190614b0c565b6020604051808303816000875af1925050508015612f8c57506040513d601f19601f82011682018060405250810190612f899190614b6d565b60015b61300e573d8060008114612fbc576040519150601f19603f3d011682016040523d82523d6000602084013e612fc1565b606091505b506000815103613006576040517f08c379a0000000000000000000000000000000000000000000000000000000008152600401612ffd90614a97565b60405180910390fd5b805181602001fd5b63150b7a0260e01b7bffffffffffffffffffffffffffffffffffffffffffffffffffffffff1916817bffffffffffffffffffffffffffffffffffffffffffffffffffffffff191614915050613063565b600190505b949350505050565b600080600090507a184f03e93ff9f4daa797ed6e38ed64bf6a1f01000000000000000083106130c9577a184f03e93ff9f4daa797ed6e38ed64bf6a1f01000000000000000083816130bf576130be614195565b5b0492506040810190505b6d04ee2d6d415b85acef81000000008310613106576d04ee2d6d415b85acef810000000083816130fc576130fb614195565b5b0492506020810190505b662386f26fc10000831061313557662386f26fc10000838161312b5761312a614195565b5b0492506010810190505b6305f5e100831061315e576305f5e100838161315457613153614195565b5b0492506008810190505b612710831061318357612710838161317957613178614195565b5b0492506004810190505b606483106131a6576064838161319c5761319b614195565b5b0492506002810190505b600a83106131b5576001810190505b80915050919050565b600073ffffffffffffffffffffffffffffffffffffffff168273ffffffffffffffffffffffffffffffffffffffff160361322d576040517f08c379a000000000000000000000000000000000000000000000000000000000815260040161322490614be6565b60405180910390fd5b61323681612b8f565b15613276576040517f08c379a000000000000000000000000000000000000000000000000000000000815260040161326d90614c52565b60405180910390fd5b613284600083836001612e7d565b61328d81612b8f565b156132cd576040517f08c379a00000000000000000000000000000000000000000000000000000000081526004016132c490614c52565b60405180910390fd5b6001600360008473ffffffffffffffffffffffffffffffffffffffff1673ffffffffffffffffffffffffffffffffffffffff16815260200190815260200160002060008282540192505081905550816002600083815260200190815260200160002060006101000a81548173ffffffffffffffffffffffffffffffffffffffff021916908373ffffffffffffffffffffffffffffffffffffffff160217905550808273ffffffffffffffffffffffffffffffffffffffff16600073ffffffffffffffffffffffffffffffffffffffff167fddf252ad1be2c89b69c2b068fc378daa952ba7f163c4a11628f55a4df523b3ef60405160405180910390a46133d7600083836001612e83565b5050565b6000808273ffffffffffffffffffffffffffffffffffffffff163b119050919050565b6000604051905090565b600080fd5b600080fd5b60007fffffffff0000000000000000000000000000000000000000000000000000000082169050919050565b61344781613412565b811461345257600080fd5b50565b6000813590506134648161343e565b92915050565b6000602082840312156134805761347f613408565b5b600061348e84828501613455565b91505092915050565b60008115159050919050565b6134ac81613497565b82525050565b60006020820190506134c760008301846134a3565b92915050565b6000819050919050565b6134e0816134cd565b81146134eb57600080fd5b50565b6000813590506134fd816134d7565b92915050565b60006020828403121561351957613518613408565b5b6000613527848285016134ee565b91505092915050565b613539816134cd565b82525050565b60006020820190506135546000830184613530565b92915050565b600081519050919050565b600082825260208201905092915050565b60005b83811015613594578082015181840152602081019050613579565b60008484015250505050565b6000601f19601f8301169050919050565b60006135bc8261355a565b6135c68185613565565b93506135d6818560208601613576565b6135df816135a0565b840191505092915050565b6000602082019050818103600083015261360481846135b1565b905092915050565b600073ffffffffffffffffffffffffffffffffffffffff82169050919050565b60006136378261360c565b9050919050565b6136478161362c565b82525050565b6000602082019050613662600083018461363e565b92915050565b6136718161362c565b811461367c57600080fd5b50565b60008135905061368e81613668565b92915050565b600080604083850312156136ab576136aa613408565b5b60006136b98582860161367f565b92505060206136ca858286016134ee565b9150509250929050565b6000806000606084860312156136ed576136ec613408565b5b60006136fb8682870161367f565b935050602061370c8682870161367f565b925050604061371d868287016134ee565b9150509250925092565b7f4e487b7100000000000000000000000000000000000000000000000000000000600052602160045260246000fd5b6004811061376757613766613727565b5b50565b600081905061377882613756565b919050565b60006137888261376a565b9050919050565b6137988161377d565b82525050565b600060e08201905081810360008301526137b8818a6135b1565b905081810360208301526137cc81896135b1565b905081810360408301526137e081886135b1565b90506137ef6060830187613530565b6137fc608083018661363e565b61380960a083018561378f565b61381660c083018461363e565b98975050505050505050565b600081519050919050565b600082825260208201905092915050565b6000819050602082019050919050565b613857816134cd565b82525050565b6000613869838361384e565b60208301905092915050565b6000602082019050919050565b600061388d82613822565b613897818561382d565b93506138a28361383e565b8060005b838110156138d35781516138ba888261385d565b97506138c583613875565b9250506001810190506138a6565b5085935050505092915050565b600060208201905081810360008301526138fa8184613882565b905092915050565b600080fd5b600080fd5b7f4e487b7100000000000000000000000000000000000000000000000000000000600052604160045260246000fd5b613944826135a0565b810181811067ffffffffffffffff821117156139635761396261390c565b5b80604052505050565b60006139766133fe565b9050613982828261393b565b919050565b600067ffffffffffffffff8211156139a2576139a161390c565b5b6139ab826135a0565b9050602081019050919050565b82818337600083830152505050565b60006139da6139d584613987565b61396c565b9050828152602081018484840111156139f6576139f5613907565b5b613a018482856139b8565b509392505050565b600082601f830112613a1e57613a1d613902565b5b8135613a2e8482602086016139c7565b91505092915050565b60008060008060808587031215613a5157613a50613408565b5b600085013567ffffffffffffffff811115613a6f57613a6e61340d565b5b613a7b87828801613a09565b945050602085013567ffffffffffffffff811115613a9c57613a9b61340d565b5b613aa887828801613a09565b935050604085013567ffffffffffffffff811115613ac957613ac861340d565b5b613ad587828801613a09565b9250506060613ae6878288016134ee565b91505092959194509250565b600060208284031215613b0857613b07613408565b5b6000613b168482850161367f565b91505092915050565b600067ffffffffffffffff821115613b3a57613b3961390c565b5b602082029050602081019050919050565b600080fd5b6000613b63613b5e84613b1f565b61396c565b90508083825260208201905060208402830185811115613b8657613b85613b4b565b5b835b81811015613baf5780613b9b88826134ee565b845260208401935050602081019050613b88565b5050509392505050565b600082601f830112613bce57613bcd613902565b5b8135613bde848260208601613b50565b91505092915050565b60008060408385031215613bfe57613bfd613408565b5b600083013567ffffffffffffffff811115613c1c57613c1b61340d565b5b613c2885828601613bb9565b9250506020613c39858286016134ee565b9150509250929050565b60006060820190508181036000830152613c5d8186613882565b90508181036020830152613c718185613882565b9050613c80604083018461378f565b949350505050565b613c9181613497565b8114613c9c57600080fd5b50565b600081359050613cae81613c88565b92915050565b60008060408385031215613ccb57613cca613408565b5b6000613cd98582860161367f565b9250506020613cea85828601613c9f565b9150509250929050565b600067ffffffffffffffff821115613d0f57613d0e61390c565b5b613d18826135a0565b9050602081019050919050565b6000613d38613d3384613cf4565b61396c565b905082815260208101848484011115613d5457613d53613907565b5b613d5f8482856139b8565b509392505050565b600082601f830112613d7c57613d7b613902565b5b8135613d8c848260208601613d25565b91505092915050565b60008060008060808587031215613daf57613dae613408565b5b6000613dbd8782880161367f565b9450506020613dce8782880161367f565b9350506040613ddf878288016134ee565b925050606085013567ffffffffffffffff811115613e0057613dff61340d565b5b613e0c87828801613d67565b91505092959194509250565b60008060408385031215613e2f57613e2e613408565b5b6000613e3d858286016134ee565b9250506020613e4e858286016134ee565b9150509250929050565b600060c0820190508181036000830152613e7281896135b1565b90508181036020830152613e8681886135b1565b90508181036040830152613e9a81876135b1565b9050613ea96060830186613530565b613eb6608083018561378f565b613ec360a083018461363e565b979650505050505050565b60008060408385031215613ee557613ee4613408565b5b6000613ef38582860161367f565b9250506020613f048582860161367f565b9150509250929050565b7f4e487b7100000000000000000000000000000000000000000000000000000000600052602260045260246000fd5b60006002820490506001821680613f5557607f821691505b602082108103613f6857613f67613f0e565b5b50919050565b7f4552433732313a20617070726f76616c20746f2063757272656e74206f776e6560008201527f7200000000000000000000000000000000000000000000000000000000000000602082015250565b6000613fca602183613565565b9150613fd582613f6e565b604082019050919050565b60006020820190508181036000830152613ff981613fbd565b9050919050565b7f4552433732313a20617070726f76652063616c6c6572206973206e6f7420746f60008201527f6b656e206f776e6572206f7220617070726f76656420666f7220616c6c000000602082015250565b600061405c603d83613565565b915061406782614000565b604082019050919050565b6000602082019050818103600083015261408b8161404f565b9050919050565b7f4552433732313a2063616c6c6572206973206e6f7420746f6b656e206f776e6560008201527f72206f7220617070726f76656400000000000000000000000000000000000000602082015250565b60006140ee602d83613565565b91506140f982614092565b604082019050919050565b6000602082019050818103600083015261411d816140e1565b9050919050565b7f4e487b7100000000000000000000000000000000000000000000000000000000600052601160045260246000fd5b600061415e826134cd565b9150614169836134cd565b9250828202614177816134cd565b9150828204841483151761418e5761418d614124565b5b5092915050565b7f4e487b7100000000000000000000000000000000000000000000000000000000600052601260045260246000fd5b60006141cf826134cd565b91506141da836134cd565b9250826141ea576141e9614195565b5b828204905092915050565b7f4e487b7100000000000000000000000000000000000000000000000000000000600052603260045260246000fd5b600061422f826134cd565b91507fffffffffffffffffffffffffffffffffffffffffffffffffffffffffffffffff820361426157614260614124565b5b600182019050919050565b6000614277826134cd565b9150614282836134cd565b925082820390508181111561429a57614299614124565b5b92915050565b60006142ab826134cd565b91506142b6836134cd565b92508282019050808211156142ce576142cd614124565b5b92915050565b7f4e487b7100000000000000000000000000000000000000000000000000000000600052603160045260246000fd5b60008190508160005260206000209050919050565b60006020601f8301049050919050565b600082821b905092915050565b6000600883026143657fffffffffffffffffffffffffffffffffffffffffffffffffffffffffffffffff82614328565b61436f8683614328565b95508019841693508086168417925050509392505050565b6000819050919050565b60006143ac6143a76143a2846134cd565b614387565b6134cd565b9050919050565b6000819050919050565b6143c683614391565b6143da6143d2826143b3565b848454614335565b825550505050565b600090565b6143ef6143e2565b6143fa8184846143bd565b505050565b5b8181101561441e576144136000826143e7565b600181019050614400565b5050565b601f8211156144635761443481614303565b61443d84614318565b8101602085101561444c578190505b61446061445885614318565b8301826143ff565b50505b505050565b600082821c905092915050565b600061448660001984600802614468565b1980831691505092915050565b600061449f8383614475565b9150826002028217905092915050565b6144b88261355a565b67ffffffffffffffff8111156144d1576144d061390c565b5b6144db8254613f3d565b6144e6828285614422565b600060209050601f8311600181146145195760008415614507578287015190505b6145118582614493565b865550614579565b601f19841661452786614303565b60005b8281101561454f5784890151825560018201915060208501945060208101905061452a565b8683101561456c5784890151614568601f891682614475565b8355505b6001600288020188555050505b505050505050565b7f4552433732313a20696e76616c696420746f6b656e2049440000000000000000600082015250565b60006145b7601883613565565b91506145c282614581565b602082019050919050565b600060208201905081810360008301526145e6816145aa565b9050919050565b7f4552433732313a2061646472657373207a65726f206973206e6f74206120766160008201527f6c6964206f776e65720000000000000000000000000000000000000000000000602082015250565b6000614649602983613565565b9150614654826145ed565b604082019050919050565b600060208201905081810360008301526146788161463c565b9050919050565b7f436f6465536e69707065744e46543a20546f6b656e20646f6573206e6f74206560008201527f7869737400000000000000000000000000000000000000000000000000000000602082015250565b60006146db602483613565565b91506146e68261467f565b604082019050919050565b6000602082019050818103600083015261470a816146ce565b9050919050565b7f436f6465536e69707065744e46543a20746f6b656e206e6f742070726573656e60008201527f7420696e2070656e64696e6720617070726f76616c206c697374000000000000602082015250565b600061476d603a83613565565b915061477882614711565b604082019050919050565b6000602082019050818103600083015261479c81614760565b9050919050565b600081905092915050565b60006147b98261355a565b6147c381856147a3565b93506147d3818560208601613576565b80840191505092915050565b60006147eb82856147ae565b91506147f782846147ae565b91508190509392505050565b7f496e76616c696420616d6f756e7420746f2062757920636f646520736e69707060008201527f6574000000000000000000000000000000000000000000000000000000000000602082015250565b600061485f602283613565565b915061486a82614803565b604082019050919050565b6000602082019050818103600083015261488e81614852565b9050919050565b7f4552433732313a207472616e736665722066726f6d20696e636f72726563742060008201527f6f776e6572000000000000000000000000000000000000000000000000000000602082015250565b60006148f1602583613565565b91506148fc82614895565b604082019050919050565b60006020820190508181036000830152614920816148e4565b9050919050565b7f4552433732313a207472616e7366657220746f20746865207a65726f2061646460008201527f7265737300000000000000000000000000000000000000000000000000000000602082015250565b6000614983602483613565565b915061498e82614927565b604082019050919050565b600060208201905081810360008301526149b281614976565b9050919050565b7f4552433732313a20617070726f766520746f2063616c6c657200000000000000600082015250565b60006149ef601983613565565b91506149fa826149b9565b602082019050919050565b60006020820190508181036000830152614a1e816149e2565b9050919050565b7f4552433732313a207472616e7366657220746f206e6f6e20455243373231526560008201527f63656976657220696d706c656d656e7465720000000000000000000000000000602082015250565b6000614a81603283613565565b9150614a8c82614a25565b604082019050919050565b60006020820190508181036000830152614ab081614a74565b9050919050565b600081519050919050565b600082825260208201905092915050565b6000614ade82614ab7565b614ae88185614ac2565b9350614af8818560208601613576565b614b01816135a0565b840191505092915050565b6000608082019050614b21600083018761363e565b614b2e602083018661363e565b614b3b6040830185613530565b8181036060830152614b4d8184614ad3565b905095945050505050565b600081519050614b678161343e565b92915050565b600060208284031215614b8357614b82613408565b5b6000614b9184828501614b58565b91505092915050565b7f4552433732313a206d696e7420746f20746865207a65726f2061646472657373600082015250565b6000614bd0602083613565565b9150614bdb82614b9a565b602082019050919050565b60006020820190508181036000830152614bff81614bc3565b9050919050565b7f4552433732313a20746f6b656e20616c7265616479206d696e74656400000000600082015250565b6000614c3c601c83613565565b9150614c4782614c06565b602082019050919050565b60006020820190508181036000830152614c6b81614c2f565b905091905056fea26469706673582212204b21a5a6726bd418773722cf7ab0ae088b113068637f8cadf80113c21fb6850464736f6c63430008130033",
  "immutableReferences": {},
  "source": "// SPDX-License-Identifier: MIT\r\npragma solidity ^0.8.0;\r\n\r\n//used to import the ERC721 smart contract \r\nimport \"../node_modules/@openzeppelin/contracts/token/ERC721/ERC721.sol\";\r\n//import \"@openzeppelin/contracts/token/ERC721/ERC721.sol\";\r\n\r\n/*\r\nSolidity smart contract that inherits from ERC721, which is the standard interface \r\nfor non-fungible tokens (NFTs) on the Ethereum blockchain.\r\n*/\r\ncontract CodeSnippetNFT is ERC721 {\r\n\r\n    //max value\r\n    //uint256 MAX_VALUE = 115792089237316195423570985008687907853269984665640564;\r\n    uint256 MAX_VALUE = 99999999;\r\n    //manager of smart contract\r\n    address custodian;\r\n\r\n    //To represent the status of the code snippet\r\n    enum ApprovalStatus {notverified, verified, requested, requestapproved}\r\n\r\n    //To store the detais of the codesnippet\r\n    struct CodeSnippet {\r\n        string name;\r\n        string language;\r\n        string code;\r\n        uint256 price;\r\n        address currentOwner;\r\n        ApprovalStatus approvalStatus;\r\n        address requestedBy; \r\n    }\r\n\r\n    //Used to store the approved codesnippet tockenids\r\n    uint256[] public approvedCodeSnippetTokens;\r\n    //Used to store the pending approved codesnippet tockenids\r\n    uint256[] public pendingApprovalCodeSnippetTokens;\r\n\r\n    uint256[] public requestedCodeSnippetTokens;\r\n\r\n    //CodeSnippet[] private codeSnippets;\r\n    // Using the tokenids of codesnippet to identify the details of codesnippets uniquely\r\n    mapping (uint256 => CodeSnippet) public codeSnippets;\r\n\r\n    //mapping of creators with their tokenIds who created code snippets \r\n    mapping (address => uint256) creators;\r\n\r\n    mapping (address => uint256[]) addressTokens;\r\n\r\n    //Modifier to Check wherther the person tried to access is Custodian or not\r\n    modifier onlyCustodian(){\r\n        require(msg.sender == custodian);\r\n        _;\r\n    }\r\n\r\n   //Modifier to Check wherther sent amount is sufficien to buy the codesnippet or not\r\n    modifier validAmount(uint256 tokenId){\r\n        require(codeSnippets[tokenId].price == msg.value, \"Invalid amount to buy code snippet\");\r\n        _;\r\n    }\r\n    \r\n    //Modifier to Check given tockenid is valid or not\r\n    modifier validToken(uint256 tokenId){\r\n        require(_exists(tokenId), \"CodeSnippetNFT: Token does not exist\");\r\n        _;\r\n    }\r\n\r\n    //Modifier to Check whether the  seller is valid or not\r\n    modifier validSeller(uint256 tokenId){\r\n        require(codeSnippets[tokenId].currentOwner == msg.sender);\r\n        _;\r\n    }\r\n\r\n    constructor() ERC721(\"CodeSnippetNFT\", \"CSNFT\") \r\n    {\r\n        custodian = msg.sender;\r\n    }\r\n\r\n    function getCurrentTimeStamp() public view returns (uint256){\r\n        return block.timestamp;\r\n    }\r\n\r\n    function getCustodianAddress() public view returns (address){\r\n        return custodian;\r\n    }\r\n\r\n    function createCodeSnippet(string memory name, string memory language, string memory code, uint256 price) public  {\r\n       //Using the time stamp as the unique Tocken id.\r\n        uint256 tokenId = getCurrentTimeStamp();\r\n        address creator = msg.sender;\r\n        //Creating the tocken for codesnippet\r\n        _safeMint(creator, tokenId);\r\n        approve(custodian, tokenId);\r\n        creators[creator] = tokenId;\r\n        addressTokens[creator].push(tokenId);\r\n        CodeSnippet memory newCodeSnippet =  CodeSnippet(name, language, code, price, creator, ApprovalStatus.notverified, address(0));\r\n        codeSnippets[tokenId] = newCodeSnippet;\r\n        pendingApprovalCodeSnippetTokens.push(tokenId);\r\n    }\r\n\r\n    function getIndex(uint256[] memory arr, uint256 item)public view returns(uint256){\r\n        for(uint256 i = 0; i < arr.length; i++){\r\n            if(arr[i] == item)\r\n                return i;\r\n        }\r\n        return MAX_VALUE;\r\n    }\r\n\r\n    //function to approve the code snippets created by the developer to place on sale\r\n    function approveCodeSnippet(uint256 tokenId) public onlyCustodian  validToken(tokenId) returns(uint256[] memory, uint256[] memory, ApprovalStatus){\r\n        codeSnippets[tokenId].approvalStatus = ApprovalStatus.verified;\r\n\r\n        approvedCodeSnippetTokens.push(tokenId);\r\n        uint256 pendApprIndex = MAX_VALUE;\r\n        //getIndex(pendingApprovalCodeSnippetTokens, tokenId);\r\n        for(uint256 i = 0; i < pendingApprovalCodeSnippetTokens.length; i++){\r\n            if(pendingApprovalCodeSnippetTokens[i] == tokenId){\r\n                pendApprIndex = i;\r\n                break;\r\n            } \r\n        }\r\n        require(pendApprIndex != MAX_VALUE && pendApprIndex < pendingApprovalCodeSnippetTokens.length, \"CodeSnippetNFT: token not present in pending approval list\");\r\n        //delete pendingApprovalCodeSnippetTokens[pendApprIndex];\r\n        for(uint256 i = pendApprIndex; i < pendingApprovalCodeSnippetTokens.length - 1; i++){\r\n            pendingApprovalCodeSnippetTokens[i] = pendingApprovalCodeSnippetTokens[i+1];\r\n        }\r\n        pendingApprovalCodeSnippetTokens.pop();\r\n        return (pendingApprovalCodeSnippetTokens, approvedCodeSnippetTokens, codeSnippets[tokenId].approvalStatus);\r\n    }\r\n\r\n    function getPendingApprovalTokens() public view onlyCustodian returns(uint256[] memory){\r\n        uint256[] memory tokens = pendingApprovalCodeSnippetTokens;\r\n        return tokens;\r\n    }\r\n\r\n    function getApprovedTokens() public view returns(uint256[] memory){\r\n        uint256[] memory tokens = approvedCodeSnippetTokens;\r\n        return tokens;\r\n    }\r\n\r\n    function getrequestedTokens() public view returns(uint256[] memory){\r\n        uint256[] memory tokens = requestedCodeSnippetTokens;\r\n        return tokens;\r\n    }\r\n\r\n    //Function which is used by the owner to get their code snippet\r\n    function getCodeSnippet(uint256 _tokenId) public view validToken(_tokenId) returns (string memory, string memory, string memory, uint256, ApprovalStatus, address ){\r\n        //require(codeSnippets[_tokenId].currentOwner == msg.sender || msg.sender == custodian, \"Only owner/custodian can view code snippets\");\r\n        CodeSnippet memory codeSnippet = codeSnippets[_tokenId];\r\n        return (codeSnippet.name, codeSnippet.language, codeSnippet.code, codeSnippet.price, codeSnippet.approvalStatus, codeSnippet.currentOwner);\r\n    }\r\n\r\n    function requestCodeSnippet(uint256 tokenId) public payable validAmount(tokenId)\r\n    {\r\n        //remove from approved list\r\n        //uint256 apprIndex = getIndex(approvedCodeSnippetTokens, tokenId);\r\n        uint256 apprIndex = MAX_VALUE;\r\n        //getIndex(pendingApprovalCodeSnippetTokens, tokenId);\r\n        for(uint256 i = 0; i < approvedCodeSnippetTokens.length; i++){\r\n            if(approvedCodeSnippetTokens[i] == tokenId){\r\n                apprIndex = i;\r\n                break;\r\n            } \r\n        }\r\n        //delete approvedCodeSnippetTokens[apprIndex];\r\n        for(uint256 i = apprIndex; i < approvedCodeSnippetTokens.length - 1; i++){\r\n            approvedCodeSnippetTokens[i] = approvedCodeSnippetTokens[i+1];\r\n        }\r\n        approvedCodeSnippetTokens.pop();\r\n        requestedCodeSnippetTokens.push(tokenId);\r\n        codeSnippets[tokenId].requestedBy = msg.sender;\r\n        codeSnippets[tokenId].approvalStatus = ApprovalStatus.requested;\r\n        \r\n        //payable(address(this)).transfer(codeSnippets[tokenId].price);\r\n    }\r\n\r\n    //function for buying the code snippets available\r\n    function approveCodeSnippetRequestAndTransfer(uint256 tokenId) public payable {\r\n       \r\n        address payable currentOwner = payable(codeSnippets[tokenId].currentOwner);\r\n        uint256 price = codeSnippets[tokenId].price;\r\n        address _buyer = codeSnippets[tokenId].requestedBy;\r\n        //change owner\r\n        safeTransferFrom(currentOwner, _buyer, tokenId);\r\n        codeSnippets[tokenId].currentOwner = _buyer;\r\n\r\n        address payable payCustodian = payable(custodian);\r\n        //transfer amount from buyer to original owner\r\n        currentOwner.transfer(price * 90 / 100);\r\n        payCustodian.transfer(price * 10 / 100);\r\n\r\n        codeSnippets[tokenId].approvalStatus = ApprovalStatus.requestapproved;\r\n\r\n        uint256 reqIndex = MAX_VALUE;\r\n        //getIndex(pendingApprovalCodeSnippetTokens, tokenId);\r\n        for(uint256 i = 0; i < requestedCodeSnippetTokens.length; i++){\r\n            if(requestedCodeSnippetTokens[i] == tokenId){\r\n                reqIndex = i;\r\n                break;\r\n            } \r\n        }\r\n        //delete approvedCodeSnippetTokens[reqIndex];\r\n        for(uint256 i = reqIndex; i < requestedCodeSnippetTokens.length - 1; i++){\r\n            requestedCodeSnippetTokens[i] = requestedCodeSnippetTokens[i+1];\r\n        }\r\n        requestedCodeSnippetTokens.pop();\r\n\r\n        uint256 tokIndex = MAX_VALUE;\r\n        for(uint256 i = 0; i < addressTokens[currentOwner].length; i++){\r\n            if(addressTokens[currentOwner][i] == tokenId){\r\n                tokIndex = i;\r\n                break;\r\n            } \r\n        }\r\n        for(uint256 i = tokIndex; i < addressTokens[currentOwner].length - 1; i++){\r\n            addressTokens[currentOwner][i] = addressTokens[currentOwner][i+1];\r\n        }\r\n        addressTokens[currentOwner].pop();\r\n\r\n        addressTokens[_buyer].push(tokenId);\r\n        \r\n    }\r\n\r\n    function getMyTokens() public view returns(uint256[] memory)\r\n    {\r\n        address csowner = msg.sender;\r\n        return addressTokens[csowner];\r\n    }\r\n\r\n    //function to sell the code snippet\r\n    function sellCodeSnippet(uint256 tokenId, uint256 price) public validToken(tokenId) validSeller(tokenId) {\r\n        codeSnippets[tokenId].price = price;\r\n        codeSnippets[tokenId].approvalStatus = ApprovalStatus.verified;\r\n        approvedCodeSnippetTokens.push(tokenId);\r\n        approve(custodian, tokenId);\r\n    }\r\n}",
  "sourcePath": "C:\\Abhi\\UB\\Spring 2023\\Blockchain\\Project\\BlockChain_Phase2\\csnft-contract\\contracts\\csnft.sol",
  "compiler": {
    "name": "solc",
    "version": "0.8.19+commit.7dd6d404.Emscripten.clang"
  },
  "schemaVersion": "3.4.13",
  "updatedAt": "2023-05-06T00:38:37.375Z",
  "networkType": "ethereum",
  "devdoc": {
    "events": {
      "Approval(address,address,uint256)": {
        "details": "Emitted when `owner` enables `approved` to manage the `tokenId` token."
      },
      "ApprovalForAll(address,address,bool)": {
        "details": "Emitted when `owner` enables or disables (`approved`) `operator` to manage all of its assets."
      },
      "Transfer(address,address,uint256)": {
        "details": "Emitted when `tokenId` token is transferred from `from` to `to`."
      }
    },
    "kind": "dev",
    "methods": {
      "approve(address,uint256)": {
        "details": "See {IERC721-approve}."
      },
      "balanceOf(address)": {
        "details": "See {IERC721-balanceOf}."
      },
      "getApproved(uint256)": {
        "details": "See {IERC721-getApproved}."
      },
      "isApprovedForAll(address,address)": {
        "details": "See {IERC721-isApprovedForAll}."
      },
      "name()": {
        "details": "See {IERC721Metadata-name}."
      },
      "ownerOf(uint256)": {
        "details": "See {IERC721-ownerOf}."
      },
      "safeTransferFrom(address,address,uint256)": {
        "details": "See {IERC721-safeTransferFrom}."
      },
      "safeTransferFrom(address,address,uint256,bytes)": {
        "details": "See {IERC721-safeTransferFrom}."
      },
      "setApprovalForAll(address,bool)": {
        "details": "See {IERC721-setApprovalForAll}."
      },
      "supportsInterface(bytes4)": {
        "details": "See {IERC165-supportsInterface}."
      },
      "symbol()": {
        "details": "See {IERC721Metadata-symbol}."
      },
      "tokenURI(uint256)": {
        "details": "See {IERC721Metadata-tokenURI}."
      },
      "transferFrom(address,address,uint256)": {
        "details": "See {IERC721-transferFrom}."
      }
    },
    "version": 1
  },
  "userdoc": {
    "kind": "user",
    "methods": {},
    "version": 1
  }
}