{
  "contractName": "CodeSnippetNFT",
  "abi": [
    {
      "inputs": [],
      "stateMutability": "nonpayable",
      "type": "constructor"
    },
    {
      "anonymous": false,
      "inputs": [
        {
          "indexed": true,
          "internalType": "address",
          "name": "owner",
          "type": "address"
        },
        {
          "indexed": true,
          "internalType": "address",
          "name": "approved",
          "type": "address"
        },
        {
          "indexed": true,
          "internalType": "uint256",
          "name": "tokenId",
          "type": "uint256"
        }
      ],
      "name": "Approval",
      "type": "event"
    },
    {
      "anonymous": false,
      "inputs": [
        {
          "indexed": true,
          "internalType": "address",
          "name": "owner",
          "type": "address"
        },
        {
          "indexed": true,
          "internalType": "address",
          "name": "operator",
          "type": "address"
        },
        {
          "indexed": false,
          "internalType": "bool",
          "name": "approved",
          "type": "bool"
        }
      ],
      "name": "ApprovalForAll",
      "type": "event"
    },
    {
      "anonymous": false,
      "inputs": [
        {
          "indexed": true,
          "internalType": "address",
          "name": "from",
          "type": "address"
        },
        {
          "indexed": true,
          "internalType": "address",
          "name": "to",
          "type": "address"
        },
        {
          "indexed": true,
          "internalType": "uint256",
          "name": "tokenId",
          "type": "uint256"
        }
      ],
      "name": "Transfer",
      "type": "event"
    },
    {
      "inputs": [
        {
          "internalType": "address",
          "name": "to",
          "type": "address"
        },
        {
          "internalType": "uint256",
          "name": "tokenId",
          "type": "uint256"
        }
      ],
      "name": "approve",
      "outputs": [],
      "stateMutability": "nonpayable",
      "type": "function"
    },
    {
      "inputs": [
        {
          "internalType": "address",
          "name": "owner",
          "type": "address"
        }
      ],
      "name": "balanceOf",
      "outputs": [
        {
          "internalType": "uint256",
          "name": "",
          "type": "uint256"
        }
      ],
      "stateMutability": "view",
      "type": "function",
      "constant": true
    },
    {
      "inputs": [
        {
          "internalType": "uint256",
          "name": "tokenId",
          "type": "uint256"
        }
      ],
      "name": "getApproved",
      "outputs": [
        {
          "internalType": "address",
          "name": "",
          "type": "address"
        }
      ],
      "stateMutability": "view",
      "type": "function",
      "constant": true
    },
    {
      "inputs": [
        {
          "internalType": "address",
          "name": "owner",
          "type": "address"
        },
        {
          "internalType": "address",
          "name": "operator",
          "type": "address"
        }
      ],
      "name": "isApprovedForAll",
      "outputs": [
        {
          "internalType": "bool",
          "name": "",
          "type": "bool"
        }
      ],
      "stateMutability": "view",
      "type": "function",
      "constant": true
    },
    {
      "inputs": [],
      "name": "name",
      "outputs": [
        {
          "internalType": "string",
          "name": "",
          "type": "string"
        }
      ],
      "stateMutability": "view",
      "type": "function",
      "constant": true
    },
    {
      "inputs": [
        {
          "internalType": "uint256",
          "name": "tokenId",
          "type": "uint256"
        }
      ],
      "name": "ownerOf",
      "outputs": [
        {
          "internalType": "address",
          "name": "",
          "type": "address"
        }
      ],
      "stateMutability": "view",
      "type": "function",
      "constant": true
    },
    {
      "inputs": [
        {
          "internalType": "address",
          "name": "from",
          "type": "address"
        },
        {
          "internalType": "address",
          "name": "to",
          "type": "address"
        },
        {
          "internalType": "uint256",
          "name": "tokenId",
          "type": "uint256"
        }
      ],
      "name": "safeTransferFrom",
      "outputs": [],
      "stateMutability": "nonpayable",
      "type": "function"
    },
    {
      "inputs": [
        {
          "internalType": "address",
          "name": "from",
          "type": "address"
        },
        {
          "internalType": "address",
          "name": "to",
          "type": "address"
        },
        {
          "internalType": "uint256",
          "name": "tokenId",
          "type": "uint256"
        },
        {
          "internalType": "bytes",
          "name": "data",
          "type": "bytes"
        }
      ],
      "name": "safeTransferFrom",
      "outputs": [],
      "stateMutability": "nonpayable",
      "type": "function"
    },
    {
      "inputs": [
        {
          "internalType": "address",
          "name": "operator",
          "type": "address"
        },
        {
          "internalType": "bool",
          "name": "approved",
          "type": "bool"
        }
      ],
      "name": "setApprovalForAll",
      "outputs": [],
      "stateMutability": "nonpayable",
      "type": "function"
    },
    {
      "inputs": [
        {
          "internalType": "bytes4",
          "name": "interfaceId",
          "type": "bytes4"
        }
      ],
      "name": "supportsInterface",
      "outputs": [
        {
          "internalType": "bool",
          "name": "",
          "type": "bool"
        }
      ],
      "stateMutability": "view",
      "type": "function",
      "constant": true
    },
    {
      "inputs": [],
      "name": "symbol",
      "outputs": [
        {
          "internalType": "string",
          "name": "",
          "type": "string"
        }
      ],
      "stateMutability": "view",
      "type": "function",
      "constant": true
    },
    {
      "inputs": [
        {
          "internalType": "uint256",
          "name": "tokenId",
          "type": "uint256"
        }
      ],
      "name": "tokenURI",
      "outputs": [
        {
          "internalType": "string",
          "name": "",
          "type": "string"
        }
      ],
      "stateMutability": "view",
      "type": "function",
      "constant": true
    },
    {
      "inputs": [
        {
          "internalType": "address",
          "name": "from",
          "type": "address"
        },
        {
          "internalType": "address",
          "name": "to",
          "type": "address"
        },
        {
          "internalType": "uint256",
          "name": "tokenId",
          "type": "uint256"
        }
      ],
      "name": "transferFrom",
      "outputs": [],
      "stateMutability": "nonpayable",
      "type": "function"
    },
    {
      "inputs": [],
      "name": "getCurrentTimeStamp",
      "outputs": [
        {
          "internalType": "uint256",
          "name": "",
          "type": "uint256"
        }
      ],
      "stateMutability": "view",
      "type": "function",
      "constant": true
    },
    {
      "inputs": [
        {
          "internalType": "string",
          "name": "name",
          "type": "string"
        },
        {
          "internalType": "string",
          "name": "language",
          "type": "string"
        },
        {
          "internalType": "string",
          "name": "code",
          "type": "string"
        },
        {
          "internalType": "uint256",
          "name": "price",
          "type": "uint256"
        }
      ],
      "name": "createCodeSnippet",
      "outputs": [
        {
          "internalType": "uint256",
          "name": "",
          "type": "uint256"
        }
      ],
      "stateMutability": "nonpayable",
      "type": "function"
    },
    {
      "inputs": [
        {
          "internalType": "uint256[]",
          "name": "arr",
          "type": "uint256[]"
        },
        {
          "internalType": "uint256",
          "name": "item",
          "type": "uint256"
        }
      ],
      "name": "getIndex",
      "outputs": [
        {
          "internalType": "uint256",
          "name": "",
          "type": "uint256"
        }
      ],
      "stateMutability": "view",
      "type": "function",
      "constant": true
    },
    {
      "inputs": [
        {
          "internalType": "uint256",
          "name": "tokenId",
          "type": "uint256"
        }
      ],
      "name": "approveCodeSnippet",
      "outputs": [],
      "stateMutability": "nonpayable",
      "type": "function"
    },
    {
      "inputs": [
        {
          "internalType": "uint256",
          "name": "_tokenId",
          "type": "uint256"
        }
      ],
      "name": "getCodeSnippet",
      "outputs": [
        {
          "internalType": "string",
          "name": "",
          "type": "string"
        },
        {
          "internalType": "string",
          "name": "",
          "type": "string"
        },
        {
          "internalType": "string",
          "name": "",
          "type": "string"
        }
      ],
      "stateMutability": "view",
      "type": "function",
      "constant": true
    },
    {
      "inputs": [
        {
          "internalType": "uint256",
          "name": "tokenId",
          "type": "uint256"
        }
      ],
      "name": "buyCodeSnippet",
      "outputs": [],
      "stateMutability": "payable",
      "type": "function",
      "payable": true
    },
    {
      "inputs": [
        {
          "internalType": "uint256",
          "name": "tokenId",
          "type": "uint256"
        },
        {
          "internalType": "uint256",
          "name": "price",
          "type": "uint256"
        }
      ],
      "name": "sellCodeSnippet",
      "outputs": [],
      "stateMutability": "nonpayable",
      "type": "function"
    }
  ],
  "bytecode": "0x60806040526305f5e0ff6006553480156200001957600080fd5b506040518060400160405280600e81526020017f436f6465536e69707065744e46540000000000000000000000000000000000008152506040518060400160405280600581526020017f43534e465400000000000000000000000000000000000000000000000000000081525081600090816200009791906200036d565b508060019081620000a991906200036d565b50505033600760006101000a81548173ffffffffffffffffffffffffffffffffffffffff021916908373ffffffffffffffffffffffffffffffffffffffff16021790555062000454565b600081519050919050565b7f4e487b7100000000000000000000000000000000000000000000000000000000600052604160045260246000fd5b7f4e487b7100000000000000000000000000000000000000000000000000000000600052602260045260246000fd5b600060028204905060018216806200017557607f821691505b6020821081036200018b576200018a6200012d565b5b50919050565b60008190508160005260206000209050919050565b60006020601f8301049050919050565b600082821b905092915050565b600060088302620001f57fffffffffffffffffffffffffffffffffffffffffffffffffffffffffffffffff82620001b6565b620002018683620001b6565b95508019841693508086168417925050509392505050565b6000819050919050565b6000819050919050565b60006200024e62000248620002428462000219565b62000223565b62000219565b9050919050565b6000819050919050565b6200026a836200022d565b62000282620002798262000255565b848454620001c3565b825550505050565b600090565b620002996200028a565b620002a68184846200025f565b505050565b5b81811015620002ce57620002c26000826200028f565b600181019050620002ac565b5050565b601f8211156200031d57620002e78162000191565b620002f284620001a6565b8101602085101562000302578190505b6200031a6200031185620001a6565b830182620002ab565b50505b505050565b600082821c905092915050565b6000620003426000198460080262000322565b1980831691505092915050565b60006200035d83836200032f565b9150826002028217905092915050565b6200037882620000f3565b67ffffffffffffffff811115620003945762000393620000fe565b5b620003a082546200015c565b620003ad828285620002d2565b600060209050601f831160018114620003e55760008415620003d0578287015190505b620003dc85826200034f565b8655506200044c565b601f198416620003f58662000191565b60005b828110156200041f57848901518255600182019150602085019450602081019050620003f8565b868310156200043f57848901516200043b601f8916826200032f565b8355505b6001600288020188555050505b505050505050565b613a8c80620004646000396000f3fe60806040526004361061011f5760003560e01c806390aeada2116100a0578063c3829c9711610064578063c3829c9714610409578063c87b56dd14610425578063e2da6cb314610462578063e70dd0401461048b578063e985e9c5146104ca5761011f565b806390aeada21461032657806395d89b41146103635780639bca7c321461038e578063a22cb465146103b7578063b88d4fde146103e05761011f565b806342842e0e116100e757806342842e0e1461021b5780635fdeb54c146102445780636352211e1461028157806370a08231146102be5780637e5e219c146102fb5761011f565b806301ffc9a71461012457806306fdde0314610161578063081812fc1461018c578063095ea7b3146101c957806323b872dd146101f2575b600080fd5b34801561013057600080fd5b5061014b600480360381019061014691906124e1565b610507565b6040516101589190612529565b60405180910390f35b34801561016d57600080fd5b506101766105e9565b60405161018391906125d4565b60405180910390f35b34801561019857600080fd5b506101b360048036038101906101ae919061262c565b61067b565b6040516101c0919061269a565b60405180910390f35b3480156101d557600080fd5b506101f060048036038101906101eb91906126e1565b6106c1565b005b3480156101fe57600080fd5b5061021960048036038101906102149190612721565b6107d8565b005b34801561022757600080fd5b50610242600480360381019061023d9190612721565b610838565b005b34801561025057600080fd5b5061026b600480360381019061026691906128a9565b610858565b6040516102789190612973565b60405180910390f35b34801561028d57600080fd5b506102a860048036038101906102a3919061262c565b610a23565b6040516102b5919061269a565b60405180910390f35b3480156102ca57600080fd5b506102e560048036038101906102e0919061298e565b610aa9565b6040516102f29190612973565b60405180910390f35b34801561030757600080fd5b50610310610b60565b60405161031d9190612973565b60405180910390f35b34801561033257600080fd5b5061034d60048036038101906103489190612a83565b610b68565b60405161035a9190612973565b60405180910390f35b34801561036f57600080fd5b50610378610bc3565b60405161038591906125d4565b60405180910390f35b34801561039a57600080fd5b506103b560048036038101906103b0919061262c565b610c55565b005b3480156103c357600080fd5b506103de60048036038101906103d99190612b0b565b610e29565b005b3480156103ec57600080fd5b5061040760048036038101906104029190612bec565b610e3f565b005b610423600480360381019061041e919061262c565b610ea1565b005b34801561043157600080fd5b5061044c6004803603810190610447919061262c565b6110ce565b60405161045991906125d4565b60405180910390f35b34801561046e57600080fd5b5061048960048036038101906104849190612c6f565b611136565b005b34801561049757600080fd5b506104b260048036038101906104ad919061262c565b611238565b6040516104c193929190612caf565b60405180910390f35b3480156104d657600080fd5b506104f160048036038101906104ec9190612cfb565b611613565b6040516104fe9190612529565b60405180910390f35b60007f80ac58cd000000000000000000000000000000000000000000000000000000007bffffffffffffffffffffffffffffffffffffffffffffffffffffffff1916827bffffffffffffffffffffffffffffffffffffffffffffffffffffffff191614806105d257507f5b5e139f000000000000000000000000000000000000000000000000000000007bffffffffffffffffffffffffffffffffffffffffffffffffffffffff1916827bffffffffffffffffffffffffffffffffffffffffffffffffffffffff1916145b806105e257506105e1826116a7565b5b9050919050565b6060600080546105f890612d6a565b80601f016020809104026020016040519081016040528092919081815260200182805461062490612d6a565b80156106715780601f1061064657610100808354040283529160200191610671565b820191906000526020600020905b81548152906001019060200180831161065457829003601f168201915b5050505050905090565b600061068682611711565b6004600083815260200190815260200160002060009054906101000a900473ffffffffffffffffffffffffffffffffffffffff169050919050565b60006106cc82610a23565b90508073ffffffffffffffffffffffffffffffffffffffff168373ffffffffffffffffffffffffffffffffffffffff160361073c576040517f08c379a000000000000000000000000000000000000000000000000000000000815260040161073390612e0d565b60405180910390fd5b8073ffffffffffffffffffffffffffffffffffffffff1661075b61175c565b73ffffffffffffffffffffffffffffffffffffffff16148061078a57506107898161078461175c565b611613565b5b6107c9576040517f08c379a00000000000000000000000000000000000000000000000000000000081526004016107c090612e9f565b60405180910390fd5b6107d38383611764565b505050565b6107e96107e361175c565b8261181d565b610828576040517f08c379a000000000000000000000000000000000000000000000000000000000815260040161081f90612f31565b60405180910390fd5b6108338383836118b2565b505050565b61085383838360405180602001604052806000815250610e3f565b505050565b600080610863610b60565b905060003390506108748183611bab565b81600b60008373ffffffffffffffffffffffffffffffffffffffff1673ffffffffffffffffffffffffffffffffffffffff1681526020019081526020016000208190555060006040518060c001604052808981526020018881526020018781526020018681526020018373ffffffffffffffffffffffffffffffffffffffff1681526020016000600181111561090d5761090c612f51565b5b815250905080600a6000858152602001908152602001600020600082015181600001908161093b919061312c565b506020820151816001019081610951919061312c565b506040820151816002019081610967919061312c565b506060820151816003015560808201518160040160006101000a81548173ffffffffffffffffffffffffffffffffffffffff021916908373ffffffffffffffffffffffffffffffffffffffff16021790555060a08201518160040160146101000a81548160ff021916908360018111156109e4576109e3612f51565b5b02179055509050506009839080600181540180825580915050600190039060005260206000200160009091909190915055829350505050949350505050565b600080610a2f83611bc9565b9050600073ffffffffffffffffffffffffffffffffffffffff168173ffffffffffffffffffffffffffffffffffffffff1603610aa0576040517f08c379a0000000000000000000000000000000000000000000000000000000008152600401610a979061324a565b60405180910390fd5b80915050919050565b60008073ffffffffffffffffffffffffffffffffffffffff168273ffffffffffffffffffffffffffffffffffffffff1603610b19576040517f08c379a0000000000000000000000000000000000000000000000000000000008152600401610b10906132dc565b60405180910390fd5b600360008373ffffffffffffffffffffffffffffffffffffffff1673ffffffffffffffffffffffffffffffffffffffff168152602001908152602001600020549050919050565b600042905090565b600080600090505b8351811015610bb65782848281518110610b8d57610b8c6132fc565b5b602002602001015103610ba35780915050610bbd565b8080610bae9061335a565b915050610b70565b5060065490505b92915050565b606060018054610bd290612d6a565b80601f0160208091040260200160405190810160405280929190818152602001828054610bfe90612d6a565b8015610c4b5780601f10610c2057610100808354040283529160200191610c4b565b820191906000526020600020905b815481529060010190602001808311610c2e57829003601f168201915b5050505050905090565b600760009054906101000a900473ffffffffffffffffffffffffffffffffffffffff1673ffffffffffffffffffffffffffffffffffffffff163373ffffffffffffffffffffffffffffffffffffffff1614610caf57600080fd5b80610cb981611c06565b610cf8576040517f08c379a0000000000000000000000000000000000000000000000000000000008152600401610cef90613414565b60405180910390fd5b6001600a600084815260200190815260200160002060040160146101000a81548160ff02191690836001811115610d3257610d31612f51565b5b02179055506000610d936009805480602002602001604051908101604052809291908181526020018280548015610d8857602002820191906000526020600020905b815481526020019060010190808311610d74575b505050505084610b68565b90506006548103610dd9576040517f08c379a0000000000000000000000000000000000000000000000000000000008152600401610dd0906134a6565b60405180910390fd5b60098181548110610ded57610dec6132fc565b5b90600052602060002001600090556008839080600181540180825580915050600190039060005260206000200160009091909190915055505050565b610e3b610e3461175c565b8383611c47565b5050565b610e50610e4a61175c565b8361181d565b610e8f576040517f08c379a0000000000000000000000000000000000000000000000000000000008152600401610e8690612f31565b60405180910390fd5b610e9b84848484611db3565b50505050565b8034600a60008381526020019081526020016000206003015414610efa576040517f08c379a0000000000000000000000000000000000000000000000000000000008152600401610ef190613538565b60405180910390fd5b81610f0481611c06565b610f43576040517f08c379a0000000000000000000000000000000000000000000000000000000008152600401610f3a90613414565b60405180910390fd5b60003390506000600a600086815260200190815260200160002060040160009054906101000a900473ffffffffffffffffffffffffffffffffffffffff1690506000600a60008781526020019081526020016000206003015490508173ffffffffffffffffffffffffffffffffffffffff166108fc829081150290604051600060405180830381858888f19350505050158015610fe4573d6000803e3d6000fd5b506000611041600880548060200260200160405190810160405280929190818152602001828054801561103657602002820191906000526020600020905b815481526020019060010190808311611022575b505050505088610b68565b905060088181548110611057576110566132fc565b5b9060005260206000200160009055611070838589610838565b33600a600089815260200190815260200160002060040160006101000a81548173ffffffffffffffffffffffffffffffffffffffff021916908373ffffffffffffffffffffffffffffffffffffffff16021790555050505050505050565b60606110d982611711565b60006110e3611e0f565b90506000815111611103576040518060200160405280600081525061112e565b8061110d84611e26565b60405160200161111e929190613594565b6040516020818303038152906040525b915050919050565b8161114081611c06565b61117f576040517f08c379a000000000000000000000000000000000000000000000000000000000815260040161117690613414565b60405180910390fd5b823373ffffffffffffffffffffffffffffffffffffffff16600a600083815260200190815260200160002060040160009054906101000a900473ffffffffffffffffffffffffffffffffffffffff1673ffffffffffffffffffffffffffffffffffffffff16146111ee57600080fd5b82600a600086815260200190815260200160002060030181905550600884908060018154018082558091505060019003906000526020600020016000909190919091505550505050565b60608060608361124781611c06565b611286576040517f08c379a000000000000000000000000000000000000000000000000000000000815260040161127d90613414565b60405180910390fd5b3373ffffffffffffffffffffffffffffffffffffffff16600a600087815260200190815260200160002060040160009054906101000a900473ffffffffffffffffffffffffffffffffffffffff1673ffffffffffffffffffffffffffffffffffffffff1614806113435750600760009054906101000a900473ffffffffffffffffffffffffffffffffffffffff1673ffffffffffffffffffffffffffffffffffffffff163373ffffffffffffffffffffffffffffffffffffffff16145b611382576040517f08c379a00000000000000000000000000000000000000000000000000000000081526004016113799061362a565b60405180910390fd5b6000600a60008781526020019081526020016000206040518060c00160405290816000820180546113b290612d6a565b80601f01602080910402602001604051908101604052809291908181526020018280546113de90612d6a565b801561142b5780601f106114005761010080835404028352916020019161142b565b820191906000526020600020905b81548152906001019060200180831161140e57829003601f168201915b5050505050815260200160018201805461144490612d6a565b80601f016020809104026020016040519081016040528092919081815260200182805461147090612d6a565b80156114bd5780601f10611492576101008083540402835291602001916114bd565b820191906000526020600020905b8154815290600101906020018083116114a057829003601f168201915b505050505081526020016002820180546114d690612d6a565b80601f016020809104026020016040519081016040528092919081815260200182805461150290612d6a565b801561154f5780601f106115245761010080835404028352916020019161154f565b820191906000526020600020905b81548152906001019060200180831161153257829003601f168201915b50505050508152602001600382015481526020016004820160009054906101000a900473ffffffffffffffffffffffffffffffffffffffff1673ffffffffffffffffffffffffffffffffffffffff1673ffffffffffffffffffffffffffffffffffffffff1681526020016004820160149054906101000a900460ff1660018111156115dd576115dc612f51565b5b60018111156115ef576115ee612f51565b5b81525050905080600001518160200151826040015194509450945050509193909250565b6000600560008473ffffffffffffffffffffffffffffffffffffffff1673ffffffffffffffffffffffffffffffffffffffff16815260200190815260200160002060008373ffffffffffffffffffffffffffffffffffffffff1673ffffffffffffffffffffffffffffffffffffffff16815260200190815260200160002060009054906101000a900460ff16905092915050565b60007f01ffc9a7000000000000000000000000000000000000000000000000000000007bffffffffffffffffffffffffffffffffffffffffffffffffffffffff1916827bffffffffffffffffffffffffffffffffffffffffffffffffffffffff1916149050919050565b61171a81611c06565b611759576040517f08c379a00000000000000000000000000000000000000000000000000000000081526004016117509061324a565b60405180910390fd5b50565b600033905090565b816004600083815260200190815260200160002060006101000a81548173ffffffffffffffffffffffffffffffffffffffff021916908373ffffffffffffffffffffffffffffffffffffffff160217905550808273ffffffffffffffffffffffffffffffffffffffff166117d783610a23565b73ffffffffffffffffffffffffffffffffffffffff167f8c5be1e5ebec7d5bd14f71427d1e84f3dd0314c0f7b2291e5b200ac8c7c3b92560405160405180910390a45050565b60008061182983610a23565b90508073ffffffffffffffffffffffffffffffffffffffff168473ffffffffffffffffffffffffffffffffffffffff16148061186b575061186a8185611613565b5b806118a957508373ffffffffffffffffffffffffffffffffffffffff166118918461067b565b73ffffffffffffffffffffffffffffffffffffffff16145b91505092915050565b8273ffffffffffffffffffffffffffffffffffffffff166118d282610a23565b73ffffffffffffffffffffffffffffffffffffffff1614611928576040517f08c379a000000000000000000000000000000000000000000000000000000000815260040161191f906136bc565b60405180910390fd5b600073ffffffffffffffffffffffffffffffffffffffff168273ffffffffffffffffffffffffffffffffffffffff1603611997576040517f08c379a000000000000000000000000000000000000000000000000000000000815260040161198e9061374e565b60405180910390fd5b6119a48383836001611ef4565b8273ffffffffffffffffffffffffffffffffffffffff166119c482610a23565b73ffffffffffffffffffffffffffffffffffffffff1614611a1a576040517f08c379a0000000000000000000000000000000000000000000000000000000008152600401611a11906136bc565b60405180910390fd5b6004600082815260200190815260200160002060006101000a81549073ffffffffffffffffffffffffffffffffffffffff02191690556001600360008573ffffffffffffffffffffffffffffffffffffffff1673ffffffffffffffffffffffffffffffffffffffff168152602001908152602001600020600082825403925050819055506001600360008473ffffffffffffffffffffffffffffffffffffffff1673ffffffffffffffffffffffffffffffffffffffff16815260200190815260200160002060008282540192505081905550816002600083815260200190815260200160002060006101000a81548173ffffffffffffffffffffffffffffffffffffffff021916908373ffffffffffffffffffffffffffffffffffffffff160217905550808273ffffffffffffffffffffffffffffffffffffffff168473ffffffffffffffffffffffffffffffffffffffff167fddf252ad1be2c89b69c2b068fc378daa952ba7f163c4a11628f55a4df523b3ef60405160405180910390a4611ba68383836001611efa565b505050565b611bc5828260405180602001604052806000815250611f00565b5050565b60006002600083815260200190815260200160002060009054906101000a900473ffffffffffffffffffffffffffffffffffffffff169050919050565b60008073ffffffffffffffffffffffffffffffffffffffff16611c2883611bc9565b73ffffffffffffffffffffffffffffffffffffffff1614159050919050565b8173ffffffffffffffffffffffffffffffffffffffff168373ffffffffffffffffffffffffffffffffffffffff1603611cb5576040517f08c379a0000000000000000000000000000000000000000000000000000000008152600401611cac906137ba565b60405180910390fd5b80600560008573ffffffffffffffffffffffffffffffffffffffff1673ffffffffffffffffffffffffffffffffffffffff16815260200190815260200160002060008473ffffffffffffffffffffffffffffffffffffffff1673ffffffffffffffffffffffffffffffffffffffff16815260200190815260200160002060006101000a81548160ff0219169083151502179055508173ffffffffffffffffffffffffffffffffffffffff168373ffffffffffffffffffffffffffffffffffffffff167f17307eab39ab6107e8899845ad3d59bd9653f200f220920489ca2b5937696c3183604051611da69190612529565b60405180910390a3505050565b611dbe8484846118b2565b611dca84848484611f5b565b611e09576040517f08c379a0000000000000000000000000000000000000000000000000000000008152600401611e009061384c565b60405180910390fd5b50505050565b606060405180602001604052806000815250905090565b606060006001611e35846120e2565b01905060008167ffffffffffffffff811115611e5457611e5361277e565b5b6040519080825280601f01601f191660200182016040528015611e865781602001600182028036833780820191505090505b509050600082602001820190505b600115611ee9578080600190039150507f3031323334353637383961626364656600000000000000000000000000000000600a86061a8153600a8581611edd57611edc61386c565b5b04945060008503611e94575b819350505050919050565b50505050565b50505050565b611f0a8383612235565b611f176000848484611f5b565b611f56576040517f08c379a0000000000000000000000000000000000000000000000000000000008152600401611f4d9061384c565b60405180910390fd5b505050565b6000611f7c8473ffffffffffffffffffffffffffffffffffffffff16612452565b156120d5578373ffffffffffffffffffffffffffffffffffffffff1663150b7a02611fa561175c565b8786866040518563ffffffff1660e01b8152600401611fc794939291906138f0565b6020604051808303816000875af192505050801561200357506040513d601f19601f820116820180604052508101906120009190613951565b60015b612085573d8060008114612033576040519150601f19603f3d011682016040523d82523d6000602084013e612038565b606091505b50600081510361207d576040517f08c379a00000000000000000000000000000000000000000000000000000000081526004016120749061384c565b60405180910390fd5b805181602001fd5b63150b7a0260e01b7bffffffffffffffffffffffffffffffffffffffffffffffffffffffff1916817bffffffffffffffffffffffffffffffffffffffffffffffffffffffff1916149150506120da565b600190505b949350505050565b600080600090507a184f03e93ff9f4daa797ed6e38ed64bf6a1f0100000000000000008310612140577a184f03e93ff9f4daa797ed6e38ed64bf6a1f01000000000000000083816121365761213561386c565b5b0492506040810190505b6d04ee2d6d415b85acef8100000000831061217d576d04ee2d6d415b85acef810000000083816121735761217261386c565b5b0492506020810190505b662386f26fc1000083106121ac57662386f26fc1000083816121a2576121a161386c565b5b0492506010810190505b6305f5e10083106121d5576305f5e10083816121cb576121ca61386c565b5b0492506008810190505b61271083106121fa5761271083816121f0576121ef61386c565b5b0492506004810190505b6064831061221d57606483816122135761221261386c565b5b0492506002810190505b600a831061222c576001810190505b80915050919050565b600073ffffffffffffffffffffffffffffffffffffffff168273ffffffffffffffffffffffffffffffffffffffff16036122a4576040517f08c379a000000000000000000000000000000000000000000000000000000000815260040161229b906139ca565b60405180910390fd5b6122ad81611c06565b156122ed576040517f08c379a00000000000000000000000000000000000000000000000000000000081526004016122e490613a36565b60405180910390fd5b6122fb600083836001611ef4565b61230481611c06565b15612344576040517f08c379a000000000000000000000000000000000000000000000000000000000815260040161233b90613a36565b60405180910390fd5b6001600360008473ffffffffffffffffffffffffffffffffffffffff1673ffffffffffffffffffffffffffffffffffffffff16815260200190815260200160002060008282540192505081905550816002600083815260200190815260200160002060006101000a81548173ffffffffffffffffffffffffffffffffffffffff021916908373ffffffffffffffffffffffffffffffffffffffff160217905550808273ffffffffffffffffffffffffffffffffffffffff16600073ffffffffffffffffffffffffffffffffffffffff167fddf252ad1be2c89b69c2b068fc378daa952ba7f163c4a11628f55a4df523b3ef60405160405180910390a461244e600083836001611efa565b5050565b6000808273ffffffffffffffffffffffffffffffffffffffff163b119050919050565b6000604051905090565b600080fd5b600080fd5b60007fffffffff0000000000000000000000000000000000000000000000000000000082169050919050565b6124be81612489565b81146124c957600080fd5b50565b6000813590506124db816124b5565b92915050565b6000602082840312156124f7576124f661247f565b5b6000612505848285016124cc565b91505092915050565b60008115159050919050565b6125238161250e565b82525050565b600060208201905061253e600083018461251a565b92915050565b600081519050919050565b600082825260208201905092915050565b60005b8381101561257e578082015181840152602081019050612563565b60008484015250505050565b6000601f19601f8301169050919050565b60006125a682612544565b6125b0818561254f565b93506125c0818560208601612560565b6125c98161258a565b840191505092915050565b600060208201905081810360008301526125ee818461259b565b905092915050565b6000819050919050565b612609816125f6565b811461261457600080fd5b50565b60008135905061262681612600565b92915050565b6000602082840312156126425761264161247f565b5b600061265084828501612617565b91505092915050565b600073ffffffffffffffffffffffffffffffffffffffff82169050919050565b600061268482612659565b9050919050565b61269481612679565b82525050565b60006020820190506126af600083018461268b565b92915050565b6126be81612679565b81146126c957600080fd5b50565b6000813590506126db816126b5565b92915050565b600080604083850312156126f8576126f761247f565b5b6000612706858286016126cc565b925050602061271785828601612617565b9150509250929050565b60008060006060848603121561273a5761273961247f565b5b6000612748868287016126cc565b9350506020612759868287016126cc565b925050604061276a86828701612617565b9150509250925092565b600080fd5b600080fd5b7f4e487b7100000000000000000000000000000000000000000000000000000000600052604160045260246000fd5b6127b68261258a565b810181811067ffffffffffffffff821117156127d5576127d461277e565b5b80604052505050565b60006127e8612475565b90506127f482826127ad565b919050565b600067ffffffffffffffff8211156128145761281361277e565b5b61281d8261258a565b9050602081019050919050565b82818337600083830152505050565b600061284c612847846127f9565b6127de565b90508281526020810184848401111561286857612867612779565b5b61287384828561282a565b509392505050565b600082601f8301126128905761288f612774565b5b81356128a0848260208601612839565b91505092915050565b600080600080608085870312156128c3576128c261247f565b5b600085013567ffffffffffffffff8111156128e1576128e0612484565b5b6128ed8782880161287b565b945050602085013567ffffffffffffffff81111561290e5761290d612484565b5b61291a8782880161287b565b935050604085013567ffffffffffffffff81111561293b5761293a612484565b5b6129478782880161287b565b925050606061295887828801612617565b91505092959194509250565b61296d816125f6565b82525050565b60006020820190506129886000830184612964565b92915050565b6000602082840312156129a4576129a361247f565b5b60006129b2848285016126cc565b91505092915050565b600067ffffffffffffffff8211156129d6576129d561277e565b5b602082029050602081019050919050565b600080fd5b60006129ff6129fa846129bb565b6127de565b90508083825260208201905060208402830185811115612a2257612a216129e7565b5b835b81811015612a4b5780612a378882612617565b845260208401935050602081019050612a24565b5050509392505050565b600082601f830112612a6a57612a69612774565b5b8135612a7a8482602086016129ec565b91505092915050565b60008060408385031215612a9a57612a9961247f565b5b600083013567ffffffffffffffff811115612ab857612ab7612484565b5b612ac485828601612a55565b9250506020612ad585828601612617565b9150509250929050565b612ae88161250e565b8114612af357600080fd5b50565b600081359050612b0581612adf565b92915050565b60008060408385031215612b2257612b2161247f565b5b6000612b30858286016126cc565b9250506020612b4185828601612af6565b9150509250929050565b600067ffffffffffffffff821115612b6657612b6561277e565b5b612b6f8261258a565b9050602081019050919050565b6000612b8f612b8a84612b4b565b6127de565b905082815260208101848484011115612bab57612baa612779565b5b612bb684828561282a565b509392505050565b600082601f830112612bd357612bd2612774565b5b8135612be3848260208601612b7c565b91505092915050565b60008060008060808587031215612c0657612c0561247f565b5b6000612c14878288016126cc565b9450506020612c25878288016126cc565b9350506040612c3687828801612617565b925050606085013567ffffffffffffffff811115612c5757612c56612484565b5b612c6387828801612bbe565b91505092959194509250565b60008060408385031215612c8657612c8561247f565b5b6000612c9485828601612617565b9250506020612ca585828601612617565b9150509250929050565b60006060820190508181036000830152612cc9818661259b565b90508181036020830152612cdd818561259b565b90508181036040830152612cf1818461259b565b9050949350505050565b60008060408385031215612d1257612d1161247f565b5b6000612d20858286016126cc565b9250506020612d31858286016126cc565b9150509250929050565b7f4e487b7100000000000000000000000000000000000000000000000000000000600052602260045260246000fd5b60006002820490506001821680612d8257607f821691505b602082108103612d9557612d94612d3b565b5b50919050565b7f4552433732313a20617070726f76616c20746f2063757272656e74206f776e6560008201527f7200000000000000000000000000000000000000000000000000000000000000602082015250565b6000612df760218361254f565b9150612e0282612d9b565b604082019050919050565b60006020820190508181036000830152612e2681612dea565b9050919050565b7f4552433732313a20617070726f76652063616c6c6572206973206e6f7420746f60008201527f6b656e206f776e6572206f7220617070726f76656420666f7220616c6c000000602082015250565b6000612e89603d8361254f565b9150612e9482612e2d565b604082019050919050565b60006020820190508181036000830152612eb881612e7c565b9050919050565b7f4552433732313a2063616c6c6572206973206e6f7420746f6b656e206f776e6560008201527f72206f7220617070726f76656400000000000000000000000000000000000000602082015250565b6000612f1b602d8361254f565b9150612f2682612ebf565b604082019050919050565b60006020820190508181036000830152612f4a81612f0e565b9050919050565b7f4e487b7100000000000000000000000000000000000000000000000000000000600052602160045260246000fd5b60008190508160005260206000209050919050565b60006020601f8301049050919050565b600082821b905092915050565b600060088302612fe27fffffffffffffffffffffffffffffffffffffffffffffffffffffffffffffffff82612fa5565b612fec8683612fa5565b95508019841693508086168417925050509392505050565b6000819050919050565b600061302961302461301f846125f6565b613004565b6125f6565b9050919050565b6000819050919050565b6130438361300e565b61305761304f82613030565b848454612fb2565b825550505050565b600090565b61306c61305f565b61307781848461303a565b505050565b5b8181101561309b57613090600082613064565b60018101905061307d565b5050565b601f8211156130e0576130b181612f80565b6130ba84612f95565b810160208510156130c9578190505b6130dd6130d585612f95565b83018261307c565b50505b505050565b600082821c905092915050565b6000613103600019846008026130e5565b1980831691505092915050565b600061311c83836130f2565b9150826002028217905092915050565b61313582612544565b67ffffffffffffffff81111561314e5761314d61277e565b5b6131588254612d6a565b61316382828561309f565b600060209050601f8311600181146131965760008415613184578287015190505b61318e8582613110565b8655506131f6565b601f1984166131a486612f80565b60005b828110156131cc578489015182556001820191506020850194506020810190506131a7565b868310156131e957848901516131e5601f8916826130f2565b8355505b6001600288020188555050505b505050505050565b7f4552433732313a20696e76616c696420746f6b656e2049440000000000000000600082015250565b600061323460188361254f565b915061323f826131fe565b602082019050919050565b6000602082019050818103600083015261326381613227565b9050919050565b7f4552433732313a2061646472657373207a65726f206973206e6f74206120766160008201527f6c6964206f776e65720000000000000000000000000000000000000000000000602082015250565b60006132c660298361254f565b91506132d18261326a565b604082019050919050565b600060208201905081810360008301526132f5816132b9565b9050919050565b7f4e487b7100000000000000000000000000000000000000000000000000000000600052603260045260246000fd5b7f4e487b7100000000000000000000000000000000000000000000000000000000600052601160045260246000fd5b6000613365826125f6565b91507fffffffffffffffffffffffffffffffffffffffffffffffffffffffffffffffff82036133975761339661332b565b5b600182019050919050565b7f436f6465536e69707065744e46543a20546f6b656e20646f6573206e6f74206560008201527f7869737400000000000000000000000000000000000000000000000000000000602082015250565b60006133fe60248361254f565b9150613409826133a2565b604082019050919050565b6000602082019050818103600083015261342d816133f1565b9050919050565b7f436f6465536e69707065744e46543a20746f6b656e206e6f742070726573656e60008201527f7420696e2070656e64696e6720617070726f76616c206c697374000000000000602082015250565b6000613490603a8361254f565b915061349b82613434565b604082019050919050565b600060208201905081810360008301526134bf81613483565b9050919050565b7f496e76616c696420616d6f756e7420746f2062757920636f646520736e69707060008201527f6574000000000000000000000000000000000000000000000000000000000000602082015250565b600061352260228361254f565b915061352d826134c6565b604082019050919050565b6000602082019050818103600083015261355181613515565b9050919050565b600081905092915050565b600061356e82612544565b6135788185613558565b9350613588818560208601612560565b80840191505092915050565b60006135a08285613563565b91506135ac8284613563565b91508190509392505050565b7f4f6e6c79206f776e65722f637573746f6469616e2063616e207669657720636f60008201527f646520736e697070657473000000000000000000000000000000000000000000602082015250565b6000613614602b8361254f565b915061361f826135b8565b604082019050919050565b6000602082019050818103600083015261364381613607565b9050919050565b7f4552433732313a207472616e736665722066726f6d20696e636f72726563742060008201527f6f776e6572000000000000000000000000000000000000000000000000000000602082015250565b60006136a660258361254f565b91506136b18261364a565b604082019050919050565b600060208201905081810360008301526136d581613699565b9050919050565b7f4552433732313a207472616e7366657220746f20746865207a65726f2061646460008201527f7265737300000000000000000000000000000000000000000000000000000000602082015250565b600061373860248361254f565b9150613743826136dc565b604082019050919050565b600060208201905081810360008301526137678161372b565b9050919050565b7f4552433732313a20617070726f766520746f2063616c6c657200000000000000600082015250565b60006137a460198361254f565b91506137af8261376e565b602082019050919050565b600060208201905081810360008301526137d381613797565b9050919050565b7f4552433732313a207472616e7366657220746f206e6f6e20455243373231526560008201527f63656976657220696d706c656d656e7465720000000000000000000000000000602082015250565b600061383660328361254f565b9150613841826137da565b604082019050919050565b6000602082019050818103600083015261386581613829565b9050919050565b7f4e487b7100000000000000000000000000000000000000000000000000000000600052601260045260246000fd5b600081519050919050565b600082825260208201905092915050565b60006138c28261389b565b6138cc81856138a6565b93506138dc818560208601612560565b6138e58161258a565b840191505092915050565b6000608082019050613905600083018761268b565b613912602083018661268b565b61391f6040830185612964565b818103606083015261393181846138b7565b905095945050505050565b60008151905061394b816124b5565b92915050565b6000602082840312156139675761396661247f565b5b60006139758482850161393c565b91505092915050565b7f4552433732313a206d696e7420746f20746865207a65726f2061646472657373600082015250565b60006139b460208361254f565b91506139bf8261397e565b602082019050919050565b600060208201905081810360008301526139e3816139a7565b9050919050565b7f4552433732313a20746f6b656e20616c7265616479206d696e74656400000000600082015250565b6000613a20601c8361254f565b9150613a2b826139ea565b602082019050919050565b60006020820190508181036000830152613a4f81613a13565b905091905056fea26469706673582212207135d1f810d79fd478f65b3e4f45feb6ea77a045873981183f70751d54cbfecb64736f6c63430008130033",
  "immutableReferences": {},
  "source": "// SPDX-License-Identifier: MIT\r\npragma solidity ^0.8.0;\r\n\r\n//used to import the ERC721 smart contract \r\nimport \"../node_modules/@openzeppelin/contracts/token/ERC721/ERC721.sol\";\r\n//import \"@openzeppelin/contracts/token/ERC721/ERC721.sol\";\r\n\r\n/*\r\nSolidity smart contract that inherits from ERC721, which is the standard interface \r\nfor non-fungible tokens (NFTs) on the Ethereum blockchain.\r\n*/\r\ncontract CodeSnippetNFT is ERC721 {\r\n\r\n    //max value\r\n    //uint MAX_VALUE = 115792089237316195423570985008687907853269984665640564;\r\n    uint MAX_VALUE = 99999999;\r\n    //manager of smart contract\r\n    address custodian;\r\n\r\n    //To represent the status of the code snippet\r\n    enum ApprovalStatus {notverified, verified}\r\n\r\n    //To store the detais of the codesnippet\r\n    struct CodeSnippet {\r\n        string name;\r\n        string language;\r\n        string code;\r\n        uint price;\r\n        address currentOwner;\r\n        ApprovalStatus approvalStatus;\r\n    }\r\n\r\n    //Used to store the approved codesnippet tockenids\r\n    uint[] private approvedCodeSnippetTokens;\r\n    //Used to store the pending approved codesnippet tockenids\r\n    uint[] private pendingApprovalCodeSnippetTokens;\r\n\r\n    //CodeSnippet[] private codeSnippets;\r\n    // Using the tokenids of codesnippet to identify the details of codesnippets uniquely\r\n    mapping (uint => CodeSnippet) private codeSnippets;\r\n\r\n    //mapping of creators with their tokenIds who created code snippets \r\n    mapping (address => uint) creators;\r\n\r\n    //Modifier to Check wherther the person tried to access is Custodian or not\r\n    modifier onlyCustodian(){\r\n        require(msg.sender == custodian);\r\n        _;\r\n    }\r\n\r\n   //Modifier to Check wherther sent amount is sufficien to buy the codesnippet or not\r\n    modifier validAmount(uint tokenId){\r\n        require(codeSnippets[tokenId].price == msg.value, \"Invalid amount to buy code snippet\");\r\n        _;\r\n    }\r\n    \r\n    //Modifier to Check given tockenid is valid or not\r\n    modifier validToken(uint tokenId){\r\n        require(_exists(tokenId), \"CodeSnippetNFT: Token does not exist\");\r\n        _;\r\n    }\r\n\r\n    //Modifier to Check whether the  seller is valid or not\r\n    modifier validSeller(uint tokenId){\r\n        require(codeSnippets[tokenId].currentOwner == msg.sender);\r\n        _;\r\n    }\r\n\r\n    constructor() ERC721(\"CodeSnippetNFT\", \"CSNFT\") \r\n    {\r\n        custodian = msg.sender;\r\n    }\r\n\r\n    function getCurrentTimeStamp() public view returns (uint256){\r\n        return block.timestamp;\r\n    }\r\n\r\n    function createCodeSnippet(string memory name, string memory language, string memory code, uint price) public returns(uint256)  {\r\n       //Using the time stamp as the unique Tocken id.\r\n        uint256 tokenId = getCurrentTimeStamp();\r\n        address creator = msg.sender;\r\n        //Creating the tocken for codesnippet\r\n        _safeMint(creator, tokenId);\r\n        creators[creator] = tokenId;\r\n        CodeSnippet memory newCodeSnippet =  CodeSnippet(name, language, code, price, creator, ApprovalStatus.notverified);\r\n        codeSnippets[tokenId] = newCodeSnippet;\r\n        pendingApprovalCodeSnippetTokens.push(tokenId);\r\n        return tokenId;\r\n    }\r\n\r\n    function getIndex(uint[] memory arr, uint item)public view returns(uint){\r\n        for(uint i = 0; i < arr.length; i++){\r\n            if(arr[i] == item)\r\n                return i;\r\n        }\r\n        return MAX_VALUE;\r\n    }\r\n\r\n    //function to approve the code snippets created by the developer to place on sale\r\n    function approveCodeSnippet(uint tokenId) public onlyCustodian  validToken(tokenId){\r\n        codeSnippets[tokenId].approvalStatus = ApprovalStatus.verified;\r\n\r\n        uint pendApprIndex = getIndex(pendingApprovalCodeSnippetTokens, tokenId);\r\n        require(pendApprIndex != MAX_VALUE, \"CodeSnippetNFT: token not present in pending approval list\");\r\n        delete pendingApprovalCodeSnippetTokens[pendApprIndex];\r\n\r\n        approvedCodeSnippetTokens.push(tokenId);\r\n    }\r\n\r\n    //Function which is used by the owner to get their code snippet\r\n    function getCodeSnippet(uint256 _tokenId) public view validToken(_tokenId) returns (string memory, string memory, string memory){\r\n        require(codeSnippets[_tokenId].currentOwner == msg.sender || msg.sender == custodian, \"Only owner/custodian can view code snippets\");\r\n        CodeSnippet memory codeSnippet = codeSnippets[_tokenId];\r\n        return (codeSnippet.name, codeSnippet.language, codeSnippet.code);\r\n    }\r\n\r\n\r\n    //function for buying the code snippets available\r\n    function buyCodeSnippet(uint tokenId) public payable validAmount(tokenId) validToken(tokenId) {\r\n        address buyer = msg.sender;\r\n        address payable currentOwner = payable(codeSnippets[tokenId].currentOwner);\r\n        uint price = codeSnippets[tokenId].price;\r\n\r\n        //transfer amount from buyer to original owner\r\n        currentOwner.transfer(price);\r\n        //remove from approved list\r\n        uint apprIndex = getIndex(approvedCodeSnippetTokens, tokenId);\r\n        delete approvedCodeSnippetTokens[apprIndex];\r\n        //change owner\r\n        safeTransferFrom(currentOwner, buyer, tokenId);\r\n        codeSnippets[tokenId].currentOwner = msg.sender;\r\n    }\r\n\r\n\r\n    //function to sell the code snippet\r\n    function sellCodeSnippet(uint tokenId, uint price) public validToken(tokenId) validSeller(tokenId) {\r\n        codeSnippets[tokenId].price = price;\r\n        approvedCodeSnippetTokens.push(tokenId);\r\n    }\r\n}",
  "sourcePath": "C:\\Abhi\\UB\\Spring 2023\\Blockchain\\Project\\BlockChain_Phase2\\csnft-contract\\contracts\\csnft.sol",
  "compiler": {
    "name": "solc",
    "version": "0.8.19+commit.7dd6d404.Emscripten.clang"
  },
  "schemaVersion": "3.4.13",
  "updatedAt": "2023-04-28T16:00:32.980Z",
  "networkType": "ethereum",
  "devdoc": {
    "events": {
      "Approval(address,address,uint256)": {
        "details": "Emitted when `owner` enables `approved` to manage the `tokenId` token."
      },
      "ApprovalForAll(address,address,bool)": {
        "details": "Emitted when `owner` enables or disables (`approved`) `operator` to manage all of its assets."
      },
      "Transfer(address,address,uint256)": {
        "details": "Emitted when `tokenId` token is transferred from `from` to `to`."
      }
    },
    "kind": "dev",
    "methods": {
      "approve(address,uint256)": {
        "details": "See {IERC721-approve}."
      },
      "balanceOf(address)": {
        "details": "See {IERC721-balanceOf}."
      },
      "getApproved(uint256)": {
        "details": "See {IERC721-getApproved}."
      },
      "isApprovedForAll(address,address)": {
        "details": "See {IERC721-isApprovedForAll}."
      },
      "name()": {
        "details": "See {IERC721Metadata-name}."
      },
      "ownerOf(uint256)": {
        "details": "See {IERC721-ownerOf}."
      },
      "safeTransferFrom(address,address,uint256)": {
        "details": "See {IERC721-safeTransferFrom}."
      },
      "safeTransferFrom(address,address,uint256,bytes)": {
        "details": "See {IERC721-safeTransferFrom}."
      },
      "setApprovalForAll(address,bool)": {
        "details": "See {IERC721-setApprovalForAll}."
      },
      "supportsInterface(bytes4)": {
        "details": "See {IERC165-supportsInterface}."
      },
      "symbol()": {
        "details": "See {IERC721Metadata-symbol}."
      },
      "tokenURI(uint256)": {
        "details": "See {IERC721Metadata-tokenURI}."
      },
      "transferFrom(address,address,uint256)": {
        "details": "See {IERC721-transferFrom}."
      }
    },
    "version": 1
  },
  "userdoc": {
    "kind": "user",
    "methods": {},
    "version": 1
  }
}